{
	"data": {
		"bytecode": {
			"linkReferences": {},
			"object": "6080604052346107965761001360406107ba565b601581527f4f6e436861696e5356474d657461646174614e46540000000000000000000000602082015261004760406107ba565b600881526713d0d4d591d3919560c21b602082015281516001600160401b038111610518576100765f546107df565b601f8111610749575b50602092601f82116001146106ea576100b0929382915f92610598575b50508160011b915f199060031b1c19161790565b5f555b80516001600160401b038111610518576100ce6001546107df565b601f811161069c575b50602091601f821160011461063c57610105925f91836105985750508160011b915f199060031b1c19161790565b6001555b61011161079a565b61011b60406107ba565b600981526854727573746c65737360b81b6020820152815261013d60406107ba565b600a815269213637b1b5b1b430b4b760b11b6020820152602082015261016360406107ba565b6003815262506f5760e81b6020820152604082015261018260406107ba565b600c81526b2a37b5b2b734bd30ba34b7b760a11b602082015260608201526101aa60406107ba565b60068152654f7261636c6560d01b602082015260808201526101cc60406107ba565b6004815263090c2e6d60e31b602082015260a08201526101ec60406107ba565b600381526213919560ea1b602082015260c082015261020b60406107ba565b600a81526955524920536368656d6560b01b602082015260e082015261023160406107ba565b600381526204549560ec1b602082015261010082015261025160406107ba565b600381526245564d60e81b60208201526101208201526008905f905b600a821061052c5761027d61079a565b61028760406107ba565b601081526f2232b1b2b73a3930b634bd30ba34b7b760811b602082015281526102b060406107ba565b6003815262506f5360e81b602082015260208201526102cf60406107ba565b60078152664e6f6e2d45564d60c81b602082015260408201526102f260406107ba565b60048152634465466960e01b6020820152606082015261031260406107ba565b60068152652630bcb2b91960d11b6020820152608082015261033460406107ba565b600381526264616f60e81b602082015260a082015261035360406107ba565b600b81526a21b937b9b99021b430b4b760a91b602082015260c082015261037a60406107ba565b600e81526d5a65726f204b6e6f776c6564676560901b602082015260e08201526103a460406107ba565b600381526247617360e81b60208201526101008201526103c460406107ba565b6004815263466f726b60e01b60208201526101208201526012905f905b600a82106103fd576001601c55604051612f58908161082e8239f35b80518051906001600160401b0382116105185761041a85546107df565b601f81116104dd575b50602090601f8311600114610474579261045a836001959460209487965f926104695750508160011b915f199060031b1c19161790565b86555b019301910190916103e1565b01519050898061009c565b90601f19831691865f52815f20925f5b8181106104c557509360209360019693879693838895106104ad575b505050811b01865561045d565b01515f1960f88460031b161c191690558880806104a0565b82840151855560019094019360209384019301610484565b61050890865f5260205f20601f850160051c8101916020861061050e575b601f0160051c0190610817565b85610423565b90915081906104fb565b634e487b7160e01b5f52604160045260245ffd5b80518051906001600160401b0382116105185761054985546107df565b601f811161060c575b50602090601f83116001146105a35792610589836001959460209487965f926105985750508160011b915f199060031b1c19161790565b86555b0193019101909161026d565b015190505f8061009c565b90601f19831691865f52815f20925f5b8181106105f457509360209360019693879693838895106105dc575b505050811b01865561058c565b01515f1960f88460031b161c191690555f80806105cf565b828401518555600190940193602093840193016105b3565b61063690865f5260205f20601f850160051c8101916020861061050e57601f0160051c0190610817565b5f610552565b601f1982169260015f52805f20915f5b8581106106845750836001951061066c575b505050811b01600155610109565b01515f1960f88460031b161c191690555f808061065e565b9192602060018192868501518155019401920161064c565b60015f526106e4907fb10e2d527612073b26eecdfd717e6a320cf44b4afac2b0732d9fcbe2b7fa0cf6601f840160051c8101916020851061050e57601f0160051c0190610817565b5f6100d7565b601f198216935f8052805f20915f5b8681106107315750836001959610610719575b505050811b015f556100b3565b01515f1960f88460031b161c191690555f808061070c565b919260206001819286850151815501940192016106f9565b5f8052610790907f290decd9548b62a8d60345a988386fc84ba6bc95484008f6362f93160ef3e563601f840160051c8101916020851061050e57601f0160051c0190610817565b5f61007f565b5f80fd5b6040519061014082016001600160401b0381118382101761051857604052565b6040519190601f01601f191682016001600160401b0381118382101761051857604052565b90600182811c9216801561080d575b60208310146107f957565b634e487b7160e01b5f52602260045260245ffd5b91607f16916107ee565b818110610822575050565b5f815560010161081756fe6080604052600436101561001c575b3615610018575f80fd5b5f80fd5b5f3560e01c806301ffc9a71461014b57806306fdde0314610146578063081812fc14610141578063095ea7b31461013c5780630fed8ef71461013757806323b872dd146101325780634125d0ca1461012d57806342842e0e146101285780635ed896c1146101235780636352211e1461011e57806370a082311461011957806378fdd3f21461011457806395d89b411461010f578063a22cb4651461010a578063ac2b6e9414610105578063b88d4fde14610100578063c87b56dd146100fb578063d645ddf6146100f65763e985e9c50361000e57611054565b610e1c565b610c20565b610bc0565b610ba4565b610a97565b6109f2565b610997565b6107d1565b610795565b6106c2565b610699565b61066f565b610658565b6105ae565b61040a565b61037a565b610285565b61017a565b7fffffffff0000000000000000000000000000000000000000000000000000000081160361001857565b346100185760206003193601126100185760207fffffffff000000000000000000000000000000000000000000000000000000006004356101ba81610150565b167f80ac58cd000000000000000000000000000000000000000000000000000000008114908115610222575b81156101f8575b506040519015158152f35b7f01ffc9a7000000000000000000000000000000000000000000000000000000009150145f6101ed565b7f5b5e139f00000000000000000000000000000000000000000000000000000000811491506101e6565b90601f19601f602080948051918291828752018686015e5f8582860101520116010190565b90602061028292818152019061024c565b90565b34610018575f600319360112610018576040515f80546102a4816110cc565b808452906001811690811561033857506001146102dc575b6102d8836102cc818503826108b3565b60405191829182610271565b0390f35b5f8080527f290decd9548b62a8d60345a988386fc84ba6bc95484008f6362f93160ef3e563939250905b80821061031e575090915081016020016102cc6102bc565b919260018160209254838588010152019101909291610306565b7fffffffffffffffffffffffffffffffffffffffffffffffffffffffffffffff001660208086019190915291151560051b840190910191506102cc90506102bc565b346100185760206003193601126100185760043561039781611b35565b505f526004602052602073ffffffffffffffffffffffffffffffffffffffff60405f205416604051908152f35b6004359073ffffffffffffffffffffffffffffffffffffffff8216820361001857565b6024359073ffffffffffffffffffffffffffffffffffffffff8216820361001857565b34610018576040600319360112610018576104236103c4565b6024359061043082611b35565b33151580610560575b80610506575b6104da57826104d8936104989273ffffffffffffffffffffffffffffffffffffffff80861691167f8c5be1e5ebec7d5bd14f71427d1e84f3dd0314c0f7b2291e5b200ac8c7c3b9255f80a45f52600460205260405f2090565b9073ffffffffffffffffffffffffffffffffffffffff167fffffffffffffffffffffffff0000000000000000000000000000000000000000825416179055565b005b7fa9fbf51f000000000000000000000000000000000000000000000000000000005f523360045260245ffd5b5060ff610558336105358473ffffffffffffffffffffffffffffffffffffffff165f52600560205260405f2090565b9073ffffffffffffffffffffffffffffffffffffffff165f5260205260405f2090565b54161561043f565b503373ffffffffffffffffffffffffffffffffffffffff82161415610439565b9181601f840112156100185782359167ffffffffffffffff8311610018576020838186019501011161001857565b346100185760a06003193601126100185760243560643560043560443567ffffffffffffffff8311610018576020936105ee6105fa943690600401610580565b92909160843594611268565b6040519015158152f35b60031960609101126100185760043573ffffffffffffffffffffffffffffffffffffffff81168103610018579060243573ffffffffffffffffffffffffffffffffffffffff81168103610018579060443590565b34610018576104d861066936610604565b916112b6565b34610018576020600319360112610018576004355f526006602052602060405f2054604051908152f35b34610018576104d86106aa36610604565b90604051926106ba6020856108b3565b5f8452611770565b346100185760806003193601126100185760443560243560043560643567ffffffffffffffff81116100185761071d7f0f911ff5a50ed779470e39ab5110e3e5f631ff70d8ddf46a762ff4c7668f6743913690600401610580565b90855f52600660205260405f205415610787575b61078261074a610742368585610913565b88888861160b565b6060601f19601f86604051978897604089528160408a0152858901375f84828901015201168401818582030160208601520190610964565b0390a4005b61079086611720565b610731565b346100185760206003193601126100185760206107b3600435611b35565b73ffffffffffffffffffffffffffffffffffffffff60405191168152f35b346100185760206003193601126100185773ffffffffffffffffffffffffffffffffffffffff6107ff6103c4565b16801561081c575f526003602052602060405f2054604051908152f35b7f89c62b64000000000000000000000000000000000000000000000000000000005f525f60045260245ffd5b7f4e487b71000000000000000000000000000000000000000000000000000000005f52604160045260245ffd5b6060810190811067ffffffffffffffff82111761089157604052565b610848565b6101e0810190811067ffffffffffffffff82111761089157604052565b90601f601f19910116810190811067ffffffffffffffff82111761089157604052565b604051906108e66101e0836108b3565b565b604051906108e66060836108b3565b67ffffffffffffffff811161089157601f01601f191660200190565b92919261091f826108f7565b9161092d60405193846108b3565b829481845281830111610018578281602093845f960137010152565b9080601f830112156100185781602061028293359101610913565b90602080835192838152019201905f5b8181106109815750505090565b8251845260209384019390920191600101610974565b346100185760806003193601126100185760243560643560043560443567ffffffffffffffff8311610018576102d8936109d86109de943690600401610949565b9261160b565b604051918291602083526020830190610964565b34610018575f600319360112610018576040515f600154610a12816110cc565b80845290600181169081156103385750600114610a39576102d8836102cc818503826108b3565b60015f9081527fb10e2d527612073b26eecdfd717e6a320cf44b4afac2b0732d9fcbe2b7fa0cf6939250905b808210610a7d575090915081016020016102cc6102bc565b919260018160209254838588010152019101909291610a65565b3461001857604060031936011261001857610ab06103c4565b6024358015158082036100185773ffffffffffffffffffffffffffffffffffffffff8316928315610b7857610b0e90335f52600560205260405f209073ffffffffffffffffffffffffffffffffffffffff165f5260205260405f2090565b9060ff7fffffffffffffffffffffffffffffffffffffffffffffffffffffffffffffff0083541691161790557f17307eab39ab6107e8899845ad3d59bd9653f200f220920489ca2b5937696c3160405180610b73339482919091602081019215159052565b0390a3005b837f5b08ba18000000000000000000000000000000000000000000000000000000005f5260045260245ffd5b34610018576020600319360112610018576104d8600435611720565b3461001857608060031936011261001857610bd96103c4565b610be16103e7565b906044356064359267ffffffffffffffff8411610018573660238501121561001857610c1a6104d8943690602481600401359101610913565b92611770565b34610018576020600319360112610018576004355f5260076020526102d8610dd46102cc610de7610ce7610de260405f20610dd4610d5f604051610c6381610875565b610c6c8461111d565b8152610ce1610d10610ca6610c966002610c8860018a0161111d565b9860208701998a520161111d565b9384604082015251965193611c0d565b92610ce1604051998a98610ce160208b016009907f7b226e616d65223a22000000000000000000000000000000000000000000000081520190565b906114a7565b7f222c226465736372697074696f6e223a22000000000000000000000000000000815260110190565b7f222c22696d616765223a22646174613a696d6167652f7376672b786d6c3b626181527f736536342c000000000000000000000000000000000000000000000000000000602082015260250190565b7f222c2261747472696275746573223a5b7b2274726169745f74797065223a224381527f6f6d70616e79222c2276616c7565223a2241686e4c616220426c6f636b63686160208201527f696e20436f6d70616e79227d5d7d0000000000000000000000000000000000006040820152604e0190565b03601f1981018352826108b3565b611c0d565b6040517f646174613a6170706c69636174696f6e2f6a736f6e3b6261736536342c0000006020820152928391603d8301610ce1565b346100185760606003193601126100185760043567ffffffffffffffff811161001857610e4d903690600401610949565b60243567ffffffffffffffff811161001857610e6d903690600401610949565b9060443567ffffffffffffffff811161001857610e8e903690600401610949565b91601c54918243039143831161104f57610ff5610eb16102d89661102295611502565b610eb9611c74565b50610f7d610ed7610ed2610ecc84611206565b5161190f565b611ce1565b5091610f73610eeb610ed2610ecc84611218565b5091610f69610eff610ed2610ecc84611228565b50610f5f610f17610f12610ecc86611238565b611cf2565b5091610f55610f3b610f12610ecc610f34610f12610ecc8b611248565b5098611258565b5097610f4e610f486108d6565b9b61111d565b8b5261111d565b60208a015261111d565b604088015261111d565b606086015261111d565b608084015261111d565b60a08201524260c08201528560e0820152610f96611d03565b610100820152610fa4611d3e565b610120820152610fb2611d79565b610140820152610fc0611db4565b610160820152610fce611db4565b610180820152610fdc611def565b6101a0820152610fea611def565b6101c0820152611e2a565b90610ffe6108e8565b9283526020830152604082015261101d835f52600760205260405f2090565b611a37565b61102c813361227b565b61103f61103a601c54611b27565b601c55565b6040519081529081906020820190565b61145e565b3461001857604060031936011261001857602060ff6110c06110746103c4565b73ffffffffffffffffffffffffffffffffffffffff6110916103e7565b91165f526005845260405f209073ffffffffffffffffffffffffffffffffffffffff165f5260205260405f2090565b54166040519015158152f35b90600182811c92168015611113575b60208310146110e657565b7f4e487b71000000000000000000000000000000000000000000000000000000005f52602260045260245ffd5b91607f16916110db565b9060405191825f825492611130846110cc565b80845293600181169081156111995750600114611155575b506108e6925003836108b3565b90505f9291925260205f20905f915b81831061117d5750509060206108e6928201015f611148565b6020919350806001915483858901015201910190918492611164565b602093506108e69592507fffffffffffffffffffffffffffffffffffffffffffffffffffffffffffffff0091501682840152151560051b8201015f611148565b7f4e487b71000000000000000000000000000000000000000000000000000000005f52603260045260245ffd5b8051156112135760200190565b6111d9565b8051600110156112135760400190565b8051600210156112135760600190565b8051600310156112135760800190565b8051600410156112135760a00190565b8051600510156112135760c00190565b91906109d861127b948297963691610913565b5f5b83811061128c57505050505f90565b8151811015611213578260208260051b84010151146112ad5760010161127d565b50505050600190565b91909173ffffffffffffffffffffffffffffffffffffffff831690811561141e5773ffffffffffffffffffffffffffffffffffffffff91835f5260026020528361131860405f2073ffffffffffffffffffffffffffffffffffffffff90541690565b913361140e575b61136d85841697886113d1575b6113548173ffffffffffffffffffffffffffffffffffffffff165f52600360205260405f2090565b60018154019055610498845f52600260205260405f2090565b867fddf252ad1be2c89b69c2b068fc378daa952ba7f163c4a11628f55a4df523b3ef5f80a450168083036113a057505050565b7f64283d7b000000000000000000000000000000000000000000000000000000005f5260045260245260445260645ffd5b6113da8461234a565b6114028573ffffffffffffffffffffffffffffffffffffffff165f52600360205260405f2090565b5f19815401905561132c565b611419823385612384565b61131f565b7f64a0ae92000000000000000000000000000000000000000000000000000000005f525f60045260245ffd5b604051906114596020836108b3565b5f8252565b7f4e487b71000000000000000000000000000000000000000000000000000000005f52601160045260245ffd5b906001820180921161104f57565b906002820180921161104f57565b805191908290602001825e015f815290565b67ffffffffffffffff81116108915760051b60200190565b906114db826114b9565b6114e860405191826108b3565b828152601f196114f882946114b9565b0190602036910137565b409081156115e35790611515600a61148b565b915f9060405161152d81610dd46020820180956114a7565b5190209161153b600a6114d1565b9361155661155161154c8360081c90565b61148b565b6114d1565b91600161156284611206565b525f935b600a85106115775750505050505090565b8260a0604051848152600a60208201528760408201528360608201528860808201522006600160ff82161b60018260081c0160051b86019081518181165f146115c95750505050600101945b94611566565b909192939897600101938460051b8b0152179052936115c3565b7f4e47846c000000000000000000000000000000000000000000000000000000005f5260045ffd5b929181158015611717575b6116ef57409283156115e35761162e9092919261148b565b5f9160405161164581610dd46020820180956114a7565b51902090611652846114d1565b9461166361155161154c8460081c90565b92600161166f85611206565b525f945b868610611684575050505050505090565b8360a06040518581528960208201528860408201528360608201528460808201522006600160ff82161b60018260081c0160051b87019081518181165f146116d55750505050600101955b95611673565b909192939998600101938460051b8c0152179052946116cf565b7f3492aef6000000000000000000000000000000000000000000000000000000005f5260045ffd5b50818410611616565b80409081156115e357805f52600660205260405f2054611748575f52600660205260405f2055565b7fc6b06e99000000000000000000000000000000000000000000000000000000005f5260045ffd5b90929161177e8185846112b6565b833b61178b575b50505050565b6020916117c660405194859384937f150b7a020000000000000000000000000000000000000000000000000000000085523360048601611ba3565b03815f73ffffffffffffffffffffffffffffffffffffffff87165af15f91816118de575b5061184a57506117f8611bde565b8051919082611843577f64a0ae92000000000000000000000000000000000000000000000000000000005f5273ffffffffffffffffffffffffffffffffffffffff821660045260245ffd5b9050602001fd5b7fffffffff000000000000000000000000000000000000000000000000000000007f150b7a020000000000000000000000000000000000000000000000000000000091160361189d57505f808080611785565b7f64a0ae92000000000000000000000000000000000000000000000000000000005f5273ffffffffffffffffffffffffffffffffffffffff1660045260245ffd5b61190191925060203d602011611908575b6118f981836108b3565b810190611b8e565b905f6117ea565b503d6118ef565b905f19820191821161104f57565b601f821161192a57505050565b5f5260205f20906020601f840160051c83019310611962575b601f0160051c01905b818110611957575050565b5f815560010161194c565b9091508190611943565b919091825167ffffffffffffffff8111610891576119948161198e84546110cc565b8461191d565b6020601f82116001146119d25781906119c39394955f926119c7575b50505f198260011b9260031b1c19161790565b9055565b015190505f806119b0565b601f198216906119e5845f5260205f2090565b915f5b818110611a1f57509583600195969710611a07575b505050811b019055565b01515f1960f88460031b161c191690555f80806119fd565b9192602060018192868b0151815501940192016119e8565b919091825192835167ffffffffffffffff811161089157611a6281611a5c85546110cc565b8561191d565b6020601f8211600114611ab55791611a98826040936002956108e698995f926119c75750505f198260011b9260031b1c19161790565b84555b611aac60208201516001860161196c565b0151910161196c565b601f19821695611ac8855f5260205f2090565b965f5b818110611b0f5750926108e69697600295936001938360409710611af7575b505050811b018455611a9b565b01515f1960f88460031b161c191690555f8080611aea565b83830151895560019098019760209384019301611acb565b5f19811461104f5760010190565b805f52600260205273ffffffffffffffffffffffffffffffffffffffff60405f205416908115611b63575090565b7f7e273289000000000000000000000000000000000000000000000000000000005f5260045260245ffd5b90816020910312610018575161028281610150565b909273ffffffffffffffffffffffffffffffffffffffff6080938161028297961684521660208301526040820152816060820152019061024c565b3d15611c08573d90611bef826108f7565b91611bfd60405193846108b3565b82523d5f602084013e565b606090565b60405161028291611c1f6060836108b3565b604082527f4142434445464748494a4b4c4d4e4f505152535455565758595a61626364656660208301527f6768696a6b6c6d6e6f707172737475767778797a303132333435363738392b2f6040830152612533565b60405190611c8182610896565b60606101c08382815282602082015282604082015282808201528260808201528260a08201525f60c08201525f60e08201528261010082015282610120820152826101408201528261016082015282610180820152826101a08201520152565b600a81101561121357600801905f90565b600a81101561121357601201905f90565b60405190611d126040836108b3565b600782527f23666637663530000000000000000000000000000000000000000000000000006020830152565b60405190611d4d6040836108b3565b600782527f23413946354632000000000000000000000000000000000000000000000000006020830152565b60405190611d886040836108b3565b600782527f23666666666666000000000000000000000000000000000000000000000000006020830152565b60405190611dc36040836108b3565b600182527f30000000000000000000000000000000000000000000000000000000000000006020830152565b60405190611dfe6040836108b3565b600182527f31000000000000000000000000000000000000000000000000000000000000006020830152565b60e081018051611e3990612db3565b61016083015191610180840151906101a08501516101c0860151610100870151916101208801519351611e6b90612db3565b9460405197889760208901611ef0906057907f3c73766720786d6c6e733d22687474703a2f2f7777772e77332e6f72672f323081527f30302f737667222077696474683d2235303022206865696768743d223530302260208201527f2076696577426f783d223020302035303020353030223e00000000000000000060408201520190565b7f3c646566733e000000000000000000000000000000000000000000000000000081526006017f3c6c696e6561724772616469656e742069643d226772616469656e74000000008152601c01611f45916114a7565b7f222078313d2200000000000000000000000000000000000000000000000000008152600601611f74916114a7565b7f222079313d2200000000000000000000000000000000000000000000000000008152600601611fa3916114a7565b7f222078323d2200000000000000000000000000000000000000000000000000008152600601611fd2916114a7565b7f222079323d2200000000000000000000000000000000000000000000000000008152600601612001916114a7565b7f223e00000000000000000000000000000000000000000000000000000000000081526002017f3c73746f70206f66667365743d22302522207374796c653d2273746f702d636f81527f6c6f723a00000000000000000000000000000000000000000000000000000000602082015260240161207c916114a7565b7f3b73746f702d6f7061636974793a3122202f3e0000000000000000000000000081526013017f3c73746f70206f66667365743d223130302522207374796c653d2273746f702d81527f636f6c6f723a000000000000000000000000000000000000000000000000000060208201526026016120f7916114a7565b7f3b73746f702d6f7061636974793a3122202f3e0000000000000000000000000081526013017f3c2f6c696e6561724772616469656e743e00000000000000000000000000000081526011017f3c2f646566733e0000000000000000000000000000000000000000000000000081526007017f3c726563742077696474683d223130302522206865696768743d22313030252281527f2066696c6c3d2275726c28236772616469656e7400000000000000000000000060208201526034016121be916114a7565b7f2922202f3e000000000000000000000000000000000000000000000000000000815260050103601f19810182526121f690826108b3565b6121ff82612632565b9161220981612786565b9061221390612cbc565b9060405193849360208501612227916114a7565b612230916114a7565b612239916114a7565b612242916114a7565b7f3c2f7376673e000000000000000000000000000000000000000000000000000081526006015b03601f198101825261028290826108b3565b9073ffffffffffffffffffffffffffffffffffffffff821690811561141e57805f52600260205273ffffffffffffffffffffffffffffffffffffffff60405f205416916122f283151594856113d1576113548173ffffffffffffffffffffffffffffffffffffffff165f52600360205260405f2090565b827fddf252ad1be2c89b69c2b068fc378daa952ba7f163c4a11628f55a4df523b3ef5f80a45061231e57565b7f73c6ac6e000000000000000000000000000000000000000000000000000000005f525f60045260245ffd5b61235c905f52600460205260405f2090565b80547fffffffffffffffffffffffff0000000000000000000000000000000000000000169055565b9190916123af73ffffffffffffffffffffffffffffffffffffffff8416801515908161244357501590565b6123b857505050565b73ffffffffffffffffffffffffffffffffffffffff166123fd577f7e273289000000000000000000000000000000000000000000000000000000005f5260045260245ffd5b7f177e802f000000000000000000000000000000000000000000000000000000005f5273ffffffffffffffffffffffffffffffffffffffff90911660045260245260445ffd5b73ffffffffffffffffffffffffffffffffffffffff84168082149250821561249c575b50811561247257501590565b9050835f52600460205273ffffffffffffffffffffffffffffffffffffffff60405f205416141590565b9091505f52600560205260ff6124d38660405f209073ffffffffffffffffffffffffffffffffffffffff165f5260205260405f2090565b5416905f612466565b908160021b917f3fffffffffffffffffffffffffffffffffffffffffffffffffffffffffffffff81160361104f57565b90612516826108f7565b61252360405191826108b3565b828152601f196114f882946108f7565b9190918051156126275761256161255c6125576125508451611499565b6003900490565b6124dc565b61250c565b90602082019080815182019560208701908151925f83525b8881106125d957505060039394959650525106806001146125a95760021461259f575090565b5f19603d91015390565b507ffffffffffffffffffffffffffffffffffffffffffffffffffffffffffffffffe81603d5f1981940153015390565b600360049199969901986001603f8b5182828260121c16870101518453828282600c1c16870101518385015382828260061c1687010151600285015316840101516003820153019497612579565b50905061028261144a565b61028261272a91600761275461265160e0610140850151940151612db3565b600c6040519687957f3c7465787420783d2232302220793d2236302220666f6e742d73697a653d223360208801527f352220666f6e742d7765696768743d22626f6c64222066696c6c3d2200000000604088015260426126b4605c8901836114a7565b7f223e426c6f636b636861696e20436c6173733c2f746578743e0000000000000081527f3c7465787420783d2232302220793d2239302220666f6e742d73697a653d223160198201527f34222066696c6c3d220000000000000000000000000000000000000000000000603982015201906114a7565b7f223e546f6b656e2049443a200000000000000000000000000000000000000000815201906114a7565b7f3c2f746578743e0000000000000000000000000000000000000000000000000081520103601f1981018352826108b3565b61014081015190805190602081015192604082015191606081015160808201519160a00151936040519687966020880161280a90603d907f3c7465787420783d2232302220793d223135302220666f6e742d73697a653d2281527f32322220666f6e742d7765696768743d22626f6c64222066696c6c3d2200000060208201520190565b61281490876114a7565b7f223e4c6561726e696e6773206b6579776f7264733c2f746578743e00000000008152601b017f3c7465787420783d2232302220793d223138302220666f6e742d73697a653d2281527f3138222066696c6c3d22000000000000000000000000000000000000000000006020820152602a0161289090876114a7565b7f223e312e2000000000000000000000000000000000000000000000000000000081526005016128bf916114a7565b7f3c2f746578743e0000000000000000000000000000000000000000000000000081526007017f3c7465787420783d2232302220793d223231302220666f6e742d73697a653d2281527f3138222066696c6c3d22000000000000000000000000000000000000000000006020820152602a0161293b90866114a7565b7f223e322e20000000000000000000000000000000000000000000000000000000815260050161296a916114a7565b7f3c2f746578743e0000000000000000000000000000000000000000000000000081526007017f3c7465787420783d2232302220793d223234302220666f6e742d73697a653d2281527f3138222066696c6c3d22000000000000000000000000000000000000000000006020820152602a016129e690856114a7565b7f223e332e200000000000000000000000000000000000000000000000000000008152600501612a15916114a7565b7f3c2f746578743e0000000000000000000000000000000000000000000000000081526007017f3c7465787420783d2232302220793d223239302220666f6e742d73697a653d2281527f32322220666f6e742d7765696768743d22626f6c64222066696c6c3d220000006020820152603d01612a9190846114a7565b7f223e5374756479206b6579776f7264733c2f746578743e00000000000000000081526017017f3c7465787420783d2232302220793d223332302220666f6e742d73697a653d2281527f3138222066696c6c3d22000000000000000000000000000000000000000000006020820152602a01612b0d90846114a7565b7f223e312e200000000000000000000000000000000000000000000000000000008152600501612b3c916114a7565b7f3c2f746578743e0000000000000000000000000000000000000000000000000081526007017f3c7465787420783d2232302220793d223335302220666f6e742d73697a653d2281527f3138222066696c6c3d22000000000000000000000000000000000000000000006020820152602a01612bb890836114a7565b7f223e322e200000000000000000000000000000000000000000000000000000008152600501612be7916114a7565b7f3c2f746578743e0000000000000000000000000000000000000000000000000081526007017f3c7465787420783d2232302220793d223338302220666f6e742d73697a653d2281527f3138222066696c6c3d22000000000000000000000000000000000000000000006020820152602a01612c62916114a7565b7f223e332e200000000000000000000000000000000000000000000000000000008152600501612c91916114a7565b7f3c2f746578743e000000000000000000000000000000000000000000000000008152600701612269565b6102826007612d3992612d63612cdb60c0610140840151930151612db3565b60126040519687947f3c7465787420783d2232302220793d223437302220666f6e742d73697a653d2260208701527f3134222066696c6c3d22000000000000000000000000000000000000000000006040870152604a8601906114a7565b7f223e497373756554696d657374616d703a200000000000000000000000000000815201906114a7565b7f3c2f746578743e000000000000000000000000000000000000000000000000008152037fffffffffffffffffffffffffffffffffffffffffffffffffffffffffffffffe78101845201826108b3565b805f917a184f03e93ff9f4daa797ed6e38ed64bf6a1f010000000000000000821015612efa575b806d04ee2d6d415b85acef8100000000600a921015612ede575b662386f26fc10000811015612ec9575b6305f5e100811015612eb7575b612710811015612ea7575b6064811015612e98575b1015612e8d575b612e765f196021612e406001860161250c565b948501015b01917f3031323334353637383961626364656600000000000000000000000000000000600a82061a8353600a900490565b8015612e88575f19612e769192612e45565b505090565b600190910190612e2d565b60029060649004930192612e26565b6004906127109004930192612e1c565b6008906305f5e1009004930192612e11565b601090662386f26fc100009004930192612e04565b6020906d04ee2d6d415b85acef81000000009004930192612df4565b50604091507a184f03e93ff9f4daa797ed6e38ed64bf6a1f0100000000000000008104612dda56fea2646970667358221220ea14fde4aadca98067c1c2103bc99e0856edb1d222538b8bdd71018f49e237b264736f6c634300081a0033",
			"opcodes": "PUSH1 0x80 PUSH1 0x40 MSTORE CALLVALUE PUSH2 0x796 JUMPI PUSH2 0x13 PUSH1 0x40 PUSH2 0x7BA JUMP JUMPDEST PUSH1 0x15 DUP2 MSTORE PUSH32 0x4F6E436861696E5356474D657461646174614E46540000000000000000000000 PUSH1 0x20 DUP3 ADD MSTORE PUSH2 0x47 PUSH1 0x40 PUSH2 0x7BA JUMP JUMPDEST PUSH1 0x8 DUP2 MSTORE PUSH8 0x13D0D4D591D39195 PUSH1 0xC2 SHL PUSH1 0x20 DUP3 ADD MSTORE DUP2 MLOAD PUSH1 0x1 PUSH1 0x1 PUSH1 0x40 SHL SUB DUP2 GT PUSH2 0x518 JUMPI PUSH2 0x76 PUSH0 SLOAD PUSH2 0x7DF JUMP JUMPDEST PUSH1 0x1F DUP2 GT PUSH2 0x749 JUMPI JUMPDEST POP PUSH1 0x20 SWAP3 PUSH1 0x1F DUP3 GT PUSH1 0x1 EQ PUSH2 0x6EA JUMPI PUSH2 0xB0 SWAP3 SWAP4 DUP3 SWAP2 PUSH0 SWAP3 PUSH2 0x598 JUMPI JUMPDEST POP POP DUP2 PUSH1 0x1 SHL SWAP2 PUSH0 NOT SWAP1 PUSH1 0x3 SHL SHR NOT AND OR SWAP1 JUMP JUMPDEST PUSH0 SSTORE JUMPDEST DUP1 MLOAD PUSH1 0x1 PUSH1 0x1 PUSH1 0x40 SHL SUB DUP2 GT PUSH2 0x518 JUMPI PUSH2 0xCE PUSH1 0x1 SLOAD PUSH2 0x7DF JUMP JUMPDEST PUSH1 0x1F DUP2 GT PUSH2 0x69C JUMPI JUMPDEST POP PUSH1 0x20 SWAP2 PUSH1 0x1F DUP3 GT PUSH1 0x1 EQ PUSH2 0x63C JUMPI PUSH2 0x105 SWAP3 PUSH0 SWAP2 DUP4 PUSH2 0x598 JUMPI POP POP DUP2 PUSH1 0x1 SHL SWAP2 PUSH0 NOT SWAP1 PUSH1 0x3 SHL SHR NOT AND OR SWAP1 JUMP JUMPDEST PUSH1 0x1 SSTORE JUMPDEST PUSH2 0x111 PUSH2 0x79A JUMP JUMPDEST PUSH2 0x11B PUSH1 0x40 PUSH2 0x7BA JUMP JUMPDEST PUSH1 0x9 DUP2 MSTORE PUSH9 0x54727573746C657373 PUSH1 0xB8 SHL PUSH1 0x20 DUP3 ADD MSTORE DUP2 MSTORE PUSH2 0x13D PUSH1 0x40 PUSH2 0x7BA JUMP JUMPDEST PUSH1 0xA DUP2 MSTORE PUSH10 0x213637B1B5B1B430B4B7 PUSH1 0xB1 SHL PUSH1 0x20 DUP3 ADD MSTORE PUSH1 0x20 DUP3 ADD MSTORE PUSH2 0x163 PUSH1 0x40 PUSH2 0x7BA JUMP JUMPDEST PUSH1 0x3 DUP2 MSTORE PUSH3 0x506F57 PUSH1 0xE8 SHL PUSH1 0x20 DUP3 ADD MSTORE PUSH1 0x40 DUP3 ADD MSTORE PUSH2 0x182 PUSH1 0x40 PUSH2 0x7BA JUMP JUMPDEST PUSH1 0xC DUP2 MSTORE PUSH12 0x2A37B5B2B734BD30BA34B7B7 PUSH1 0xA1 SHL PUSH1 0x20 DUP3 ADD MSTORE PUSH1 0x60 DUP3 ADD MSTORE PUSH2 0x1AA PUSH1 0x40 PUSH2 0x7BA JUMP JUMPDEST PUSH1 0x6 DUP2 MSTORE PUSH6 0x4F7261636C65 PUSH1 0xD0 SHL PUSH1 0x20 DUP3 ADD MSTORE PUSH1 0x80 DUP3 ADD MSTORE PUSH2 0x1CC PUSH1 0x40 PUSH2 0x7BA JUMP JUMPDEST PUSH1 0x4 DUP2 MSTORE PUSH4 0x90C2E6D PUSH1 0xE3 SHL PUSH1 0x20 DUP3 ADD MSTORE PUSH1 0xA0 DUP3 ADD MSTORE PUSH2 0x1EC PUSH1 0x40 PUSH2 0x7BA JUMP JUMPDEST PUSH1 0x3 DUP2 MSTORE PUSH3 0x139195 PUSH1 0xEA SHL PUSH1 0x20 DUP3 ADD MSTORE PUSH1 0xC0 DUP3 ADD MSTORE PUSH2 0x20B PUSH1 0x40 PUSH2 0x7BA JUMP JUMPDEST PUSH1 0xA DUP2 MSTORE PUSH10 0x55524920536368656D65 PUSH1 0xB0 SHL PUSH1 0x20 DUP3 ADD MSTORE PUSH1 0xE0 DUP3 ADD MSTORE PUSH2 0x231 PUSH1 0x40 PUSH2 0x7BA JUMP JUMPDEST PUSH1 0x3 DUP2 MSTORE PUSH3 0x45495 PUSH1 0xEC SHL PUSH1 0x20 DUP3 ADD MSTORE PUSH2 0x100 DUP3 ADD MSTORE PUSH2 0x251 PUSH1 0x40 PUSH2 0x7BA JUMP JUMPDEST PUSH1 0x3 DUP2 MSTORE PUSH3 0x45564D PUSH1 0xE8 SHL PUSH1 0x20 DUP3 ADD MSTORE PUSH2 0x120 DUP3 ADD MSTORE PUSH1 0x8 SWAP1 PUSH0 SWAP1 JUMPDEST PUSH1 0xA DUP3 LT PUSH2 0x52C JUMPI PUSH2 0x27D PUSH2 0x79A JUMP JUMPDEST PUSH2 0x287 PUSH1 0x40 PUSH2 0x7BA JUMP JUMPDEST PUSH1 0x10 DUP2 MSTORE PUSH16 0x2232B1B2B73A3930B634BD30BA34B7B7 PUSH1 0x81 SHL PUSH1 0x20 DUP3 ADD MSTORE DUP2 MSTORE PUSH2 0x2B0 PUSH1 0x40 PUSH2 0x7BA JUMP JUMPDEST PUSH1 0x3 DUP2 MSTORE PUSH3 0x506F53 PUSH1 0xE8 SHL PUSH1 0x20 DUP3 ADD MSTORE PUSH1 0x20 DUP3 ADD MSTORE PUSH2 0x2CF PUSH1 0x40 PUSH2 0x7BA JUMP JUMPDEST PUSH1 0x7 DUP2 MSTORE PUSH7 0x4E6F6E2D45564D PUSH1 0xC8 SHL PUSH1 0x20 DUP3 ADD MSTORE PUSH1 0x40 DUP3 ADD MSTORE PUSH2 0x2F2 PUSH1 0x40 PUSH2 0x7BA JUMP JUMPDEST PUSH1 0x4 DUP2 MSTORE PUSH4 0x44654669 PUSH1 0xE0 SHL PUSH1 0x20 DUP3 ADD MSTORE PUSH1 0x60 DUP3 ADD MSTORE PUSH2 0x312 PUSH1 0x40 PUSH2 0x7BA JUMP JUMPDEST PUSH1 0x6 DUP2 MSTORE PUSH6 0x2630BCB2B919 PUSH1 0xD1 SHL PUSH1 0x20 DUP3 ADD MSTORE PUSH1 0x80 DUP3 ADD MSTORE PUSH2 0x334 PUSH1 0x40 PUSH2 0x7BA JUMP JUMPDEST PUSH1 0x3 DUP2 MSTORE PUSH3 0x64616F PUSH1 0xE8 SHL PUSH1 0x20 DUP3 ADD MSTORE PUSH1 0xA0 DUP3 ADD MSTORE PUSH2 0x353 PUSH1 0x40 PUSH2 0x7BA JUMP JUMPDEST PUSH1 0xB DUP2 MSTORE PUSH11 0x21B937B9B99021B430B4B7 PUSH1 0xA9 SHL PUSH1 0x20 DUP3 ADD MSTORE PUSH1 0xC0 DUP3 ADD MSTORE PUSH2 0x37A PUSH1 0x40 PUSH2 0x7BA JUMP JUMPDEST PUSH1 0xE DUP2 MSTORE PUSH14 0x5A65726F204B6E6F776C65646765 PUSH1 0x90 SHL PUSH1 0x20 DUP3 ADD MSTORE PUSH1 0xE0 DUP3 ADD MSTORE PUSH2 0x3A4 PUSH1 0x40 PUSH2 0x7BA JUMP JUMPDEST PUSH1 0x3 DUP2 MSTORE PUSH3 0x476173 PUSH1 0xE8 SHL PUSH1 0x20 DUP3 ADD MSTORE PUSH2 0x100 DUP3 ADD MSTORE PUSH2 0x3C4 PUSH1 0x40 PUSH2 0x7BA JUMP JUMPDEST PUSH1 0x4 DUP2 MSTORE PUSH4 0x466F726B PUSH1 0xE0 SHL PUSH1 0x20 DUP3 ADD MSTORE PUSH2 0x120 DUP3 ADD MSTORE PUSH1 0x12 SWAP1 PUSH0 SWAP1 JUMPDEST PUSH1 0xA DUP3 LT PUSH2 0x3FD JUMPI PUSH1 0x1 PUSH1 0x1C SSTORE PUSH1 0x40 MLOAD PUSH2 0x2F58 SWAP1 DUP2 PUSH2 0x82E DUP3 CODECOPY RETURN JUMPDEST DUP1 MLOAD DUP1 MLOAD SWAP1 PUSH1 0x1 PUSH1 0x1 PUSH1 0x40 SHL SUB DUP3 GT PUSH2 0x518 JUMPI PUSH2 0x41A DUP6 SLOAD PUSH2 0x7DF JUMP JUMPDEST PUSH1 0x1F DUP2 GT PUSH2 0x4DD JUMPI JUMPDEST POP PUSH1 0x20 SWAP1 PUSH1 0x1F DUP4 GT PUSH1 0x1 EQ PUSH2 0x474 JUMPI SWAP3 PUSH2 0x45A DUP4 PUSH1 0x1 SWAP6 SWAP5 PUSH1 0x20 SWAP5 DUP8 SWAP7 PUSH0 SWAP3 PUSH2 0x469 JUMPI POP POP DUP2 PUSH1 0x1 SHL SWAP2 PUSH0 NOT SWAP1 PUSH1 0x3 SHL SHR NOT AND OR SWAP1 JUMP JUMPDEST DUP7 SSTORE JUMPDEST ADD SWAP4 ADD SWAP2 ADD SWAP1 SWAP2 PUSH2 0x3E1 JUMP JUMPDEST ADD MLOAD SWAP1 POP DUP10 DUP1 PUSH2 0x9C JUMP JUMPDEST SWAP1 PUSH1 0x1F NOT DUP4 AND SWAP2 DUP7 PUSH0 MSTORE DUP2 PUSH0 KECCAK256 SWAP3 PUSH0 JUMPDEST DUP2 DUP2 LT PUSH2 0x4C5 JUMPI POP SWAP4 PUSH1 0x20 SWAP4 PUSH1 0x1 SWAP7 SWAP4 DUP8 SWAP7 SWAP4 DUP4 DUP9 SWAP6 LT PUSH2 0x4AD JUMPI JUMPDEST POP POP POP DUP2 SHL ADD DUP7 SSTORE PUSH2 0x45D JUMP JUMPDEST ADD MLOAD PUSH0 NOT PUSH1 0xF8 DUP5 PUSH1 0x3 SHL AND SHR NOT AND SWAP1 SSTORE DUP9 DUP1 DUP1 PUSH2 0x4A0 JUMP JUMPDEST DUP3 DUP5 ADD MLOAD DUP6 SSTORE PUSH1 0x1 SWAP1 SWAP5 ADD SWAP4 PUSH1 0x20 SWAP4 DUP5 ADD SWAP4 ADD PUSH2 0x484 JUMP JUMPDEST PUSH2 0x508 SWAP1 DUP7 PUSH0 MSTORE PUSH1 0x20 PUSH0 KECCAK256 PUSH1 0x1F DUP6 ADD PUSH1 0x5 SHR DUP2 ADD SWAP2 PUSH1 0x20 DUP7 LT PUSH2 0x50E JUMPI JUMPDEST PUSH1 0x1F ADD PUSH1 0x5 SHR ADD SWAP1 PUSH2 0x817 JUMP JUMPDEST DUP6 PUSH2 0x423 JUMP JUMPDEST SWAP1 SWAP2 POP DUP2 SWAP1 PUSH2 0x4FB JUMP JUMPDEST PUSH4 0x4E487B71 PUSH1 0xE0 SHL PUSH0 MSTORE PUSH1 0x41 PUSH1 0x4 MSTORE PUSH1 0x24 PUSH0 REVERT JUMPDEST DUP1 MLOAD DUP1 MLOAD SWAP1 PUSH1 0x1 PUSH1 0x1 PUSH1 0x40 SHL SUB DUP3 GT PUSH2 0x518 JUMPI PUSH2 0x549 DUP6 SLOAD PUSH2 0x7DF JUMP JUMPDEST PUSH1 0x1F DUP2 GT PUSH2 0x60C JUMPI JUMPDEST POP PUSH1 0x20 SWAP1 PUSH1 0x1F DUP4 GT PUSH1 0x1 EQ PUSH2 0x5A3 JUMPI SWAP3 PUSH2 0x589 DUP4 PUSH1 0x1 SWAP6 SWAP5 PUSH1 0x20 SWAP5 DUP8 SWAP7 PUSH0 SWAP3 PUSH2 0x598 JUMPI POP POP DUP2 PUSH1 0x1 SHL SWAP2 PUSH0 NOT SWAP1 PUSH1 0x3 SHL SHR NOT AND OR SWAP1 JUMP JUMPDEST DUP7 SSTORE JUMPDEST ADD SWAP4 ADD SWAP2 ADD SWAP1 SWAP2 PUSH2 0x26D JUMP JUMPDEST ADD MLOAD SWAP1 POP PUSH0 DUP1 PUSH2 0x9C JUMP JUMPDEST SWAP1 PUSH1 0x1F NOT DUP4 AND SWAP2 DUP7 PUSH0 MSTORE DUP2 PUSH0 KECCAK256 SWAP3 PUSH0 JUMPDEST DUP2 DUP2 LT PUSH2 0x5F4 JUMPI POP SWAP4 PUSH1 0x20 SWAP4 PUSH1 0x1 SWAP7 SWAP4 DUP8 SWAP7 SWAP4 DUP4 DUP9 SWAP6 LT PUSH2 0x5DC JUMPI JUMPDEST POP POP POP DUP2 SHL ADD DUP7 SSTORE PUSH2 0x58C JUMP JUMPDEST ADD MLOAD PUSH0 NOT PUSH1 0xF8 DUP5 PUSH1 0x3 SHL AND SHR NOT AND SWAP1 SSTORE PUSH0 DUP1 DUP1 PUSH2 0x5CF JUMP JUMPDEST DUP3 DUP5 ADD MLOAD DUP6 SSTORE PUSH1 0x1 SWAP1 SWAP5 ADD SWAP4 PUSH1 0x20 SWAP4 DUP5 ADD SWAP4 ADD PUSH2 0x5B3 JUMP JUMPDEST PUSH2 0x636 SWAP1 DUP7 PUSH0 MSTORE PUSH1 0x20 PUSH0 KECCAK256 PUSH1 0x1F DUP6 ADD PUSH1 0x5 SHR DUP2 ADD SWAP2 PUSH1 0x20 DUP7 LT PUSH2 0x50E JUMPI PUSH1 0x1F ADD PUSH1 0x5 SHR ADD SWAP1 PUSH2 0x817 JUMP JUMPDEST PUSH0 PUSH2 0x552 JUMP JUMPDEST PUSH1 0x1F NOT DUP3 AND SWAP3 PUSH1 0x1 PUSH0 MSTORE DUP1 PUSH0 KECCAK256 SWAP2 PUSH0 JUMPDEST DUP6 DUP2 LT PUSH2 0x684 JUMPI POP DUP4 PUSH1 0x1 SWAP6 LT PUSH2 0x66C JUMPI JUMPDEST POP POP POP DUP2 SHL ADD PUSH1 0x1 SSTORE PUSH2 0x109 JUMP JUMPDEST ADD MLOAD PUSH0 NOT PUSH1 0xF8 DUP5 PUSH1 0x3 SHL AND SHR NOT AND SWAP1 SSTORE PUSH0 DUP1 DUP1 PUSH2 0x65E JUMP JUMPDEST SWAP2 SWAP3 PUSH1 0x20 PUSH1 0x1 DUP2 SWAP3 DUP7 DUP6 ADD MLOAD DUP2 SSTORE ADD SWAP5 ADD SWAP3 ADD PUSH2 0x64C JUMP JUMPDEST PUSH1 0x1 PUSH0 MSTORE PUSH2 0x6E4 SWAP1 PUSH32 0xB10E2D527612073B26EECDFD717E6A320CF44B4AFAC2B0732D9FCBE2B7FA0CF6 PUSH1 0x1F DUP5 ADD PUSH1 0x5 SHR DUP2 ADD SWAP2 PUSH1 0x20 DUP6 LT PUSH2 0x50E JUMPI PUSH1 0x1F ADD PUSH1 0x5 SHR ADD SWAP1 PUSH2 0x817 JUMP JUMPDEST PUSH0 PUSH2 0xD7 JUMP JUMPDEST PUSH1 0x1F NOT DUP3 AND SWAP4 PUSH0 DUP1 MSTORE DUP1 PUSH0 KECCAK256 SWAP2 PUSH0 JUMPDEST DUP7 DUP2 LT PUSH2 0x731 JUMPI POP DUP4 PUSH1 0x1 SWAP6 SWAP7 LT PUSH2 0x719 JUMPI JUMPDEST POP POP POP DUP2 SHL ADD PUSH0 SSTORE PUSH2 0xB3 JUMP JUMPDEST ADD MLOAD PUSH0 NOT PUSH1 0xF8 DUP5 PUSH1 0x3 SHL AND SHR NOT AND SWAP1 SSTORE PUSH0 DUP1 DUP1 PUSH2 0x70C JUMP JUMPDEST SWAP2 SWAP3 PUSH1 0x20 PUSH1 0x1 DUP2 SWAP3 DUP7 DUP6 ADD MLOAD DUP2 SSTORE ADD SWAP5 ADD SWAP3 ADD PUSH2 0x6F9 JUMP JUMPDEST PUSH0 DUP1 MSTORE PUSH2 0x790 SWAP1 PUSH32 0x290DECD9548B62A8D60345A988386FC84BA6BC95484008F6362F93160EF3E563 PUSH1 0x1F DUP5 ADD PUSH1 0x5 SHR DUP2 ADD SWAP2 PUSH1 0x20 DUP6 LT PUSH2 0x50E JUMPI PUSH1 0x1F ADD PUSH1 0x5 SHR ADD SWAP1 PUSH2 0x817 JUMP JUMPDEST PUSH0 PUSH2 0x7F JUMP JUMPDEST PUSH0 DUP1 REVERT JUMPDEST PUSH1 0x40 MLOAD SWAP1 PUSH2 0x140 DUP3 ADD PUSH1 0x1 PUSH1 0x1 PUSH1 0x40 SHL SUB DUP2 GT DUP4 DUP3 LT OR PUSH2 0x518 JUMPI PUSH1 0x40 MSTORE JUMP JUMPDEST PUSH1 0x40 MLOAD SWAP2 SWAP1 PUSH1 0x1F ADD PUSH1 0x1F NOT AND DUP3 ADD PUSH1 0x1 PUSH1 0x1 PUSH1 0x40 SHL SUB DUP2 GT DUP4 DUP3 LT OR PUSH2 0x518 JUMPI PUSH1 0x40 MSTORE JUMP JUMPDEST SWAP1 PUSH1 0x1 DUP3 DUP2 SHR SWAP3 AND DUP1 ISZERO PUSH2 0x80D JUMPI JUMPDEST PUSH1 0x20 DUP4 LT EQ PUSH2 0x7F9 JUMPI JUMP JUMPDEST PUSH4 0x4E487B71 PUSH1 0xE0 SHL PUSH0 MSTORE PUSH1 0x22 PUSH1 0x4 MSTORE PUSH1 0x24 PUSH0 REVERT JUMPDEST SWAP2 PUSH1 0x7F AND SWAP2 PUSH2 0x7EE JUMP JUMPDEST DUP2 DUP2 LT PUSH2 0x822 JUMPI POP POP JUMP JUMPDEST PUSH0 DUP2 SSTORE PUSH1 0x1 ADD PUSH2 0x817 JUMP INVALID PUSH1 0x80 PUSH1 0x40 MSTORE PUSH1 0x4 CALLDATASIZE LT ISZERO PUSH2 0x1C JUMPI JUMPDEST CALLDATASIZE ISZERO PUSH2 0x18 JUMPI PUSH0 DUP1 REVERT JUMPDEST PUSH0 DUP1 REVERT JUMPDEST PUSH0 CALLDATALOAD PUSH1 0xE0 SHR DUP1 PUSH4 0x1FFC9A7 EQ PUSH2 0x14B JUMPI DUP1 PUSH4 0x6FDDE03 EQ PUSH2 0x146 JUMPI DUP1 PUSH4 0x81812FC EQ PUSH2 0x141 JUMPI DUP1 PUSH4 0x95EA7B3 EQ PUSH2 0x13C JUMPI DUP1 PUSH4 0xFED8EF7 EQ PUSH2 0x137 JUMPI DUP1 PUSH4 0x23B872DD EQ PUSH2 0x132 JUMPI DUP1 PUSH4 0x4125D0CA EQ PUSH2 0x12D JUMPI DUP1 PUSH4 0x42842E0E EQ PUSH2 0x128 JUMPI DUP1 PUSH4 0x5ED896C1 EQ PUSH2 0x123 JUMPI DUP1 PUSH4 0x6352211E EQ PUSH2 0x11E JUMPI DUP1 PUSH4 0x70A08231 EQ PUSH2 0x119 JUMPI DUP1 PUSH4 0x78FDD3F2 EQ PUSH2 0x114 JUMPI DUP1 PUSH4 0x95D89B41 EQ PUSH2 0x10F JUMPI DUP1 PUSH4 0xA22CB465 EQ PUSH2 0x10A JUMPI DUP1 PUSH4 0xAC2B6E94 EQ PUSH2 0x105 JUMPI DUP1 PUSH4 0xB88D4FDE EQ PUSH2 0x100 JUMPI DUP1 PUSH4 0xC87B56DD EQ PUSH2 0xFB JUMPI DUP1 PUSH4 0xD645DDF6 EQ PUSH2 0xF6 JUMPI PUSH4 0xE985E9C5 SUB PUSH2 0xE JUMPI PUSH2 0x1054 JUMP JUMPDEST PUSH2 0xE1C JUMP JUMPDEST PUSH2 0xC20 JUMP JUMPDEST PUSH2 0xBC0 JUMP JUMPDEST PUSH2 0xBA4 JUMP JUMPDEST PUSH2 0xA97 JUMP JUMPDEST PUSH2 0x9F2 JUMP JUMPDEST PUSH2 0x997 JUMP JUMPDEST PUSH2 0x7D1 JUMP JUMPDEST PUSH2 0x795 JUMP JUMPDEST PUSH2 0x6C2 JUMP JUMPDEST PUSH2 0x699 JUMP JUMPDEST PUSH2 0x66F JUMP JUMPDEST PUSH2 0x658 JUMP JUMPDEST PUSH2 0x5AE JUMP JUMPDEST PUSH2 0x40A JUMP JUMPDEST PUSH2 0x37A JUMP JUMPDEST PUSH2 0x285 JUMP JUMPDEST PUSH2 0x17A JUMP JUMPDEST PUSH32 0xFFFFFFFF00000000000000000000000000000000000000000000000000000000 DUP2 AND SUB PUSH2 0x18 JUMPI JUMP JUMPDEST CALLVALUE PUSH2 0x18 JUMPI PUSH1 0x20 PUSH1 0x3 NOT CALLDATASIZE ADD SLT PUSH2 0x18 JUMPI PUSH1 0x20 PUSH32 0xFFFFFFFF00000000000000000000000000000000000000000000000000000000 PUSH1 0x4 CALLDATALOAD PUSH2 0x1BA DUP2 PUSH2 0x150 JUMP JUMPDEST AND PUSH32 0x80AC58CD00000000000000000000000000000000000000000000000000000000 DUP2 EQ SWAP1 DUP2 ISZERO PUSH2 0x222 JUMPI JUMPDEST DUP2 ISZERO PUSH2 0x1F8 JUMPI JUMPDEST POP PUSH1 0x40 MLOAD SWAP1 ISZERO ISZERO DUP2 MSTORE RETURN JUMPDEST PUSH32 0x1FFC9A700000000000000000000000000000000000000000000000000000000 SWAP2 POP EQ PUSH0 PUSH2 0x1ED JUMP JUMPDEST PUSH32 0x5B5E139F00000000000000000000000000000000000000000000000000000000 DUP2 EQ SWAP2 POP PUSH2 0x1E6 JUMP JUMPDEST SWAP1 PUSH1 0x1F NOT PUSH1 0x1F PUSH1 0x20 DUP1 SWAP5 DUP1 MLOAD SWAP2 DUP3 SWAP2 DUP3 DUP8 MSTORE ADD DUP7 DUP7 ADD MCOPY PUSH0 DUP6 DUP3 DUP7 ADD ADD MSTORE ADD AND ADD ADD SWAP1 JUMP JUMPDEST SWAP1 PUSH1 0x20 PUSH2 0x282 SWAP3 DUP2 DUP2 MSTORE ADD SWAP1 PUSH2 0x24C JUMP JUMPDEST SWAP1 JUMP JUMPDEST CALLVALUE PUSH2 0x18 JUMPI PUSH0 PUSH1 0x3 NOT CALLDATASIZE ADD SLT PUSH2 0x18 JUMPI PUSH1 0x40 MLOAD PUSH0 DUP1 SLOAD PUSH2 0x2A4 DUP2 PUSH2 0x10CC JUMP JUMPDEST DUP1 DUP5 MSTORE SWAP1 PUSH1 0x1 DUP2 AND SWAP1 DUP2 ISZERO PUSH2 0x338 JUMPI POP PUSH1 0x1 EQ PUSH2 0x2DC JUMPI JUMPDEST PUSH2 0x2D8 DUP4 PUSH2 0x2CC DUP2 DUP6 SUB DUP3 PUSH2 0x8B3 JUMP JUMPDEST PUSH1 0x40 MLOAD SWAP2 DUP3 SWAP2 DUP3 PUSH2 0x271 JUMP JUMPDEST SUB SWAP1 RETURN JUMPDEST PUSH0 DUP1 DUP1 MSTORE PUSH32 0x290DECD9548B62A8D60345A988386FC84BA6BC95484008F6362F93160EF3E563 SWAP4 SWAP3 POP SWAP1 JUMPDEST DUP1 DUP3 LT PUSH2 0x31E JUMPI POP SWAP1 SWAP2 POP DUP2 ADD PUSH1 0x20 ADD PUSH2 0x2CC PUSH2 0x2BC JUMP JUMPDEST SWAP2 SWAP3 PUSH1 0x1 DUP2 PUSH1 0x20 SWAP3 SLOAD DUP4 DUP6 DUP9 ADD ADD MSTORE ADD SWAP2 ADD SWAP1 SWAP3 SWAP2 PUSH2 0x306 JUMP JUMPDEST PUSH32 0xFFFFFFFFFFFFFFFFFFFFFFFFFFFFFFFFFFFFFFFFFFFFFFFFFFFFFFFFFFFFFF00 AND PUSH1 0x20 DUP1 DUP7 ADD SWAP2 SWAP1 SWAP2 MSTORE SWAP2 ISZERO ISZERO PUSH1 0x5 SHL DUP5 ADD SWAP1 SWAP2 ADD SWAP2 POP PUSH2 0x2CC SWAP1 POP PUSH2 0x2BC JUMP JUMPDEST CALLVALUE PUSH2 0x18 JUMPI PUSH1 0x20 PUSH1 0x3 NOT CALLDATASIZE ADD SLT PUSH2 0x18 JUMPI PUSH1 0x4 CALLDATALOAD PUSH2 0x397 DUP2 PUSH2 0x1B35 JUMP JUMPDEST POP PUSH0 MSTORE PUSH1 0x4 PUSH1 0x20 MSTORE PUSH1 0x20 PUSH20 0xFFFFFFFFFFFFFFFFFFFFFFFFFFFFFFFFFFFFFFFF PUSH1 0x40 PUSH0 KECCAK256 SLOAD AND PUSH1 0x40 MLOAD SWAP1 DUP2 MSTORE RETURN JUMPDEST PUSH1 0x4 CALLDATALOAD SWAP1 PUSH20 0xFFFFFFFFFFFFFFFFFFFFFFFFFFFFFFFFFFFFFFFF DUP3 AND DUP3 SUB PUSH2 0x18 JUMPI JUMP JUMPDEST PUSH1 0x24 CALLDATALOAD SWAP1 PUSH20 0xFFFFFFFFFFFFFFFFFFFFFFFFFFFFFFFFFFFFFFFF DUP3 AND DUP3 SUB PUSH2 0x18 JUMPI JUMP JUMPDEST CALLVALUE PUSH2 0x18 JUMPI PUSH1 0x40 PUSH1 0x3 NOT CALLDATASIZE ADD SLT PUSH2 0x18 JUMPI PUSH2 0x423 PUSH2 0x3C4 JUMP JUMPDEST PUSH1 0x24 CALLDATALOAD SWAP1 PUSH2 0x430 DUP3 PUSH2 0x1B35 JUMP JUMPDEST CALLER ISZERO ISZERO DUP1 PUSH2 0x560 JUMPI JUMPDEST DUP1 PUSH2 0x506 JUMPI JUMPDEST PUSH2 0x4DA JUMPI DUP3 PUSH2 0x4D8 SWAP4 PUSH2 0x498 SWAP3 PUSH20 0xFFFFFFFFFFFFFFFFFFFFFFFFFFFFFFFFFFFFFFFF DUP1 DUP7 AND SWAP2 AND PUSH32 0x8C5BE1E5EBEC7D5BD14F71427D1E84F3DD0314C0F7B2291E5B200AC8C7C3B925 PUSH0 DUP1 LOG4 PUSH0 MSTORE PUSH1 0x4 PUSH1 0x20 MSTORE PUSH1 0x40 PUSH0 KECCAK256 SWAP1 JUMP JUMPDEST SWAP1 PUSH20 0xFFFFFFFFFFFFFFFFFFFFFFFFFFFFFFFFFFFFFFFF AND PUSH32 0xFFFFFFFFFFFFFFFFFFFFFFFF0000000000000000000000000000000000000000 DUP3 SLOAD AND OR SWAP1 SSTORE JUMP JUMPDEST STOP JUMPDEST PUSH32 0xA9FBF51F00000000000000000000000000000000000000000000000000000000 PUSH0 MSTORE CALLER PUSH1 0x4 MSTORE PUSH1 0x24 PUSH0 REVERT JUMPDEST POP PUSH1 0xFF PUSH2 0x558 CALLER PUSH2 0x535 DUP5 PUSH20 0xFFFFFFFFFFFFFFFFFFFFFFFFFFFFFFFFFFFFFFFF AND PUSH0 MSTORE PUSH1 0x5 PUSH1 0x20 MSTORE PUSH1 0x40 PUSH0 KECCAK256 SWAP1 JUMP JUMPDEST SWAP1 PUSH20 0xFFFFFFFFFFFFFFFFFFFFFFFFFFFFFFFFFFFFFFFF AND PUSH0 MSTORE PUSH1 0x20 MSTORE PUSH1 0x40 PUSH0 KECCAK256 SWAP1 JUMP JUMPDEST SLOAD AND ISZERO PUSH2 0x43F JUMP JUMPDEST POP CALLER PUSH20 0xFFFFFFFFFFFFFFFFFFFFFFFFFFFFFFFFFFFFFFFF DUP3 AND EQ ISZERO PUSH2 0x439 JUMP JUMPDEST SWAP2 DUP2 PUSH1 0x1F DUP5 ADD SLT ISZERO PUSH2 0x18 JUMPI DUP3 CALLDATALOAD SWAP2 PUSH8 0xFFFFFFFFFFFFFFFF DUP4 GT PUSH2 0x18 JUMPI PUSH1 0x20 DUP4 DUP2 DUP7 ADD SWAP6 ADD ADD GT PUSH2 0x18 JUMPI JUMP JUMPDEST CALLVALUE PUSH2 0x18 JUMPI PUSH1 0xA0 PUSH1 0x3 NOT CALLDATASIZE ADD SLT PUSH2 0x18 JUMPI PUSH1 0x24 CALLDATALOAD PUSH1 0x64 CALLDATALOAD PUSH1 0x4 CALLDATALOAD PUSH1 0x44 CALLDATALOAD PUSH8 0xFFFFFFFFFFFFFFFF DUP4 GT PUSH2 0x18 JUMPI PUSH1 0x20 SWAP4 PUSH2 0x5EE PUSH2 0x5FA SWAP5 CALLDATASIZE SWAP1 PUSH1 0x4 ADD PUSH2 0x580 JUMP JUMPDEST SWAP3 SWAP1 SWAP2 PUSH1 0x84 CALLDATALOAD SWAP5 PUSH2 0x1268 JUMP JUMPDEST PUSH1 0x40 MLOAD SWAP1 ISZERO ISZERO DUP2 MSTORE RETURN JUMPDEST PUSH1 0x3 NOT PUSH1 0x60 SWAP2 ADD SLT PUSH2 0x18 JUMPI PUSH1 0x4 CALLDATALOAD PUSH20 0xFFFFFFFFFFFFFFFFFFFFFFFFFFFFFFFFFFFFFFFF DUP2 AND DUP2 SUB PUSH2 0x18 JUMPI SWAP1 PUSH1 0x24 CALLDATALOAD PUSH20 0xFFFFFFFFFFFFFFFFFFFFFFFFFFFFFFFFFFFFFFFF DUP2 AND DUP2 SUB PUSH2 0x18 JUMPI SWAP1 PUSH1 0x44 CALLDATALOAD SWAP1 JUMP JUMPDEST CALLVALUE PUSH2 0x18 JUMPI PUSH2 0x4D8 PUSH2 0x669 CALLDATASIZE PUSH2 0x604 JUMP JUMPDEST SWAP2 PUSH2 0x12B6 JUMP JUMPDEST CALLVALUE PUSH2 0x18 JUMPI PUSH1 0x20 PUSH1 0x3 NOT CALLDATASIZE ADD SLT PUSH2 0x18 JUMPI PUSH1 0x4 CALLDATALOAD PUSH0 MSTORE PUSH1 0x6 PUSH1 0x20 MSTORE PUSH1 0x20 PUSH1 0x40 PUSH0 KECCAK256 SLOAD PUSH1 0x40 MLOAD SWAP1 DUP2 MSTORE RETURN JUMPDEST CALLVALUE PUSH2 0x18 JUMPI PUSH2 0x4D8 PUSH2 0x6AA CALLDATASIZE PUSH2 0x604 JUMP JUMPDEST SWAP1 PUSH1 0x40 MLOAD SWAP3 PUSH2 0x6BA PUSH1 0x20 DUP6 PUSH2 0x8B3 JUMP JUMPDEST PUSH0 DUP5 MSTORE PUSH2 0x1770 JUMP JUMPDEST CALLVALUE PUSH2 0x18 JUMPI PUSH1 0x80 PUSH1 0x3 NOT CALLDATASIZE ADD SLT PUSH2 0x18 JUMPI PUSH1 0x44 CALLDATALOAD PUSH1 0x24 CALLDATALOAD PUSH1 0x4 CALLDATALOAD PUSH1 0x64 CALLDATALOAD PUSH8 0xFFFFFFFFFFFFFFFF DUP2 GT PUSH2 0x18 JUMPI PUSH2 0x71D PUSH32 0xF911FF5A50ED779470E39AB5110E3E5F631FF70D8DDF46A762FF4C7668F6743 SWAP2 CALLDATASIZE SWAP1 PUSH1 0x4 ADD PUSH2 0x580 JUMP JUMPDEST SWAP1 DUP6 PUSH0 MSTORE PUSH1 0x6 PUSH1 0x20 MSTORE PUSH1 0x40 PUSH0 KECCAK256 SLOAD ISZERO PUSH2 0x787 JUMPI JUMPDEST PUSH2 0x782 PUSH2 0x74A PUSH2 0x742 CALLDATASIZE DUP6 DUP6 PUSH2 0x913 JUMP JUMPDEST DUP9 DUP9 DUP9 PUSH2 0x160B JUMP JUMPDEST PUSH1 0x60 PUSH1 0x1F NOT PUSH1 0x1F DUP7 PUSH1 0x40 MLOAD SWAP8 DUP9 SWAP8 PUSH1 0x40 DUP10 MSTORE DUP2 PUSH1 0x40 DUP11 ADD MSTORE DUP6 DUP10 ADD CALLDATACOPY PUSH0 DUP5 DUP3 DUP10 ADD ADD MSTORE ADD AND DUP5 ADD DUP2 DUP6 DUP3 SUB ADD PUSH1 0x20 DUP7 ADD MSTORE ADD SWAP1 PUSH2 0x964 JUMP JUMPDEST SUB SWAP1 LOG4 STOP JUMPDEST PUSH2 0x790 DUP7 PUSH2 0x1720 JUMP JUMPDEST PUSH2 0x731 JUMP JUMPDEST CALLVALUE PUSH2 0x18 JUMPI PUSH1 0x20 PUSH1 0x3 NOT CALLDATASIZE ADD SLT PUSH2 0x18 JUMPI PUSH1 0x20 PUSH2 0x7B3 PUSH1 0x4 CALLDATALOAD PUSH2 0x1B35 JUMP JUMPDEST PUSH20 0xFFFFFFFFFFFFFFFFFFFFFFFFFFFFFFFFFFFFFFFF PUSH1 0x40 MLOAD SWAP2 AND DUP2 MSTORE RETURN JUMPDEST CALLVALUE PUSH2 0x18 JUMPI PUSH1 0x20 PUSH1 0x3 NOT CALLDATASIZE ADD SLT PUSH2 0x18 JUMPI PUSH20 0xFFFFFFFFFFFFFFFFFFFFFFFFFFFFFFFFFFFFFFFF PUSH2 0x7FF PUSH2 0x3C4 JUMP JUMPDEST AND DUP1 ISZERO PUSH2 0x81C JUMPI PUSH0 MSTORE PUSH1 0x3 PUSH1 0x20 MSTORE PUSH1 0x20 PUSH1 0x40 PUSH0 KECCAK256 SLOAD PUSH1 0x40 MLOAD SWAP1 DUP2 MSTORE RETURN JUMPDEST PUSH32 0x89C62B6400000000000000000000000000000000000000000000000000000000 PUSH0 MSTORE PUSH0 PUSH1 0x4 MSTORE PUSH1 0x24 PUSH0 REVERT JUMPDEST PUSH32 0x4E487B7100000000000000000000000000000000000000000000000000000000 PUSH0 MSTORE PUSH1 0x41 PUSH1 0x4 MSTORE PUSH1 0x24 PUSH0 REVERT JUMPDEST PUSH1 0x60 DUP2 ADD SWAP1 DUP2 LT PUSH8 0xFFFFFFFFFFFFFFFF DUP3 GT OR PUSH2 0x891 JUMPI PUSH1 0x40 MSTORE JUMP JUMPDEST PUSH2 0x848 JUMP JUMPDEST PUSH2 0x1E0 DUP2 ADD SWAP1 DUP2 LT PUSH8 0xFFFFFFFFFFFFFFFF DUP3 GT OR PUSH2 0x891 JUMPI PUSH1 0x40 MSTORE JUMP JUMPDEST SWAP1 PUSH1 0x1F PUSH1 0x1F NOT SWAP2 ADD AND DUP2 ADD SWAP1 DUP2 LT PUSH8 0xFFFFFFFFFFFFFFFF DUP3 GT OR PUSH2 0x891 JUMPI PUSH1 0x40 MSTORE JUMP JUMPDEST PUSH1 0x40 MLOAD SWAP1 PUSH2 0x8E6 PUSH2 0x1E0 DUP4 PUSH2 0x8B3 JUMP JUMPDEST JUMP JUMPDEST PUSH1 0x40 MLOAD SWAP1 PUSH2 0x8E6 PUSH1 0x60 DUP4 PUSH2 0x8B3 JUMP JUMPDEST PUSH8 0xFFFFFFFFFFFFFFFF DUP2 GT PUSH2 0x891 JUMPI PUSH1 0x1F ADD PUSH1 0x1F NOT AND PUSH1 0x20 ADD SWAP1 JUMP JUMPDEST SWAP3 SWAP2 SWAP3 PUSH2 0x91F DUP3 PUSH2 0x8F7 JUMP JUMPDEST SWAP2 PUSH2 0x92D PUSH1 0x40 MLOAD SWAP4 DUP5 PUSH2 0x8B3 JUMP JUMPDEST DUP3 SWAP5 DUP2 DUP5 MSTORE DUP2 DUP4 ADD GT PUSH2 0x18 JUMPI DUP3 DUP2 PUSH1 0x20 SWAP4 DUP5 PUSH0 SWAP7 ADD CALLDATACOPY ADD ADD MSTORE JUMP JUMPDEST SWAP1 DUP1 PUSH1 0x1F DUP4 ADD SLT ISZERO PUSH2 0x18 JUMPI DUP2 PUSH1 0x20 PUSH2 0x282 SWAP4 CALLDATALOAD SWAP2 ADD PUSH2 0x913 JUMP JUMPDEST SWAP1 PUSH1 0x20 DUP1 DUP4 MLOAD SWAP3 DUP4 DUP2 MSTORE ADD SWAP3 ADD SWAP1 PUSH0 JUMPDEST DUP2 DUP2 LT PUSH2 0x981 JUMPI POP POP POP SWAP1 JUMP JUMPDEST DUP3 MLOAD DUP5 MSTORE PUSH1 0x20 SWAP4 DUP5 ADD SWAP4 SWAP1 SWAP3 ADD SWAP2 PUSH1 0x1 ADD PUSH2 0x974 JUMP JUMPDEST CALLVALUE PUSH2 0x18 JUMPI PUSH1 0x80 PUSH1 0x3 NOT CALLDATASIZE ADD SLT PUSH2 0x18 JUMPI PUSH1 0x24 CALLDATALOAD PUSH1 0x64 CALLDATALOAD PUSH1 0x4 CALLDATALOAD PUSH1 0x44 CALLDATALOAD PUSH8 0xFFFFFFFFFFFFFFFF DUP4 GT PUSH2 0x18 JUMPI PUSH2 0x2D8 SWAP4 PUSH2 0x9D8 PUSH2 0x9DE SWAP5 CALLDATASIZE SWAP1 PUSH1 0x4 ADD PUSH2 0x949 JUMP JUMPDEST SWAP3 PUSH2 0x160B JUMP JUMPDEST PUSH1 0x40 MLOAD SWAP2 DUP3 SWAP2 PUSH1 0x20 DUP4 MSTORE PUSH1 0x20 DUP4 ADD SWAP1 PUSH2 0x964 JUMP JUMPDEST CALLVALUE PUSH2 0x18 JUMPI PUSH0 PUSH1 0x3 NOT CALLDATASIZE ADD SLT PUSH2 0x18 JUMPI PUSH1 0x40 MLOAD PUSH0 PUSH1 0x1 SLOAD PUSH2 0xA12 DUP2 PUSH2 0x10CC JUMP JUMPDEST DUP1 DUP5 MSTORE SWAP1 PUSH1 0x1 DUP2 AND SWAP1 DUP2 ISZERO PUSH2 0x338 JUMPI POP PUSH1 0x1 EQ PUSH2 0xA39 JUMPI PUSH2 0x2D8 DUP4 PUSH2 0x2CC DUP2 DUP6 SUB DUP3 PUSH2 0x8B3 JUMP JUMPDEST PUSH1 0x1 PUSH0 SWAP1 DUP2 MSTORE PUSH32 0xB10E2D527612073B26EECDFD717E6A320CF44B4AFAC2B0732D9FCBE2B7FA0CF6 SWAP4 SWAP3 POP SWAP1 JUMPDEST DUP1 DUP3 LT PUSH2 0xA7D JUMPI POP SWAP1 SWAP2 POP DUP2 ADD PUSH1 0x20 ADD PUSH2 0x2CC PUSH2 0x2BC JUMP JUMPDEST SWAP2 SWAP3 PUSH1 0x1 DUP2 PUSH1 0x20 SWAP3 SLOAD DUP4 DUP6 DUP9 ADD ADD MSTORE ADD SWAP2 ADD SWAP1 SWAP3 SWAP2 PUSH2 0xA65 JUMP JUMPDEST CALLVALUE PUSH2 0x18 JUMPI PUSH1 0x40 PUSH1 0x3 NOT CALLDATASIZE ADD SLT PUSH2 0x18 JUMPI PUSH2 0xAB0 PUSH2 0x3C4 JUMP JUMPDEST PUSH1 0x24 CALLDATALOAD DUP1 ISZERO ISZERO DUP1 DUP3 SUB PUSH2 0x18 JUMPI PUSH20 0xFFFFFFFFFFFFFFFFFFFFFFFFFFFFFFFFFFFFFFFF DUP4 AND SWAP3 DUP4 ISZERO PUSH2 0xB78 JUMPI PUSH2 0xB0E SWAP1 CALLER PUSH0 MSTORE PUSH1 0x5 PUSH1 0x20 MSTORE PUSH1 0x40 PUSH0 KECCAK256 SWAP1 PUSH20 0xFFFFFFFFFFFFFFFFFFFFFFFFFFFFFFFFFFFFFFFF AND PUSH0 MSTORE PUSH1 0x20 MSTORE PUSH1 0x40 PUSH0 KECCAK256 SWAP1 JUMP JUMPDEST SWAP1 PUSH1 0xFF PUSH32 0xFFFFFFFFFFFFFFFFFFFFFFFFFFFFFFFFFFFFFFFFFFFFFFFFFFFFFFFFFFFFFF00 DUP4 SLOAD AND SWAP2 AND OR SWAP1 SSTORE PUSH32 0x17307EAB39AB6107E8899845AD3D59BD9653F200F220920489CA2B5937696C31 PUSH1 0x40 MLOAD DUP1 PUSH2 0xB73 CALLER SWAP5 DUP3 SWAP2 SWAP1 SWAP2 PUSH1 0x20 DUP2 ADD SWAP3 ISZERO ISZERO SWAP1 MSTORE JUMP JUMPDEST SUB SWAP1 LOG3 STOP JUMPDEST DUP4 PUSH32 0x5B08BA1800000000000000000000000000000000000000000000000000000000 PUSH0 MSTORE PUSH1 0x4 MSTORE PUSH1 0x24 PUSH0 REVERT JUMPDEST CALLVALUE PUSH2 0x18 JUMPI PUSH1 0x20 PUSH1 0x3 NOT CALLDATASIZE ADD SLT PUSH2 0x18 JUMPI PUSH2 0x4D8 PUSH1 0x4 CALLDATALOAD PUSH2 0x1720 JUMP JUMPDEST CALLVALUE PUSH2 0x18 JUMPI PUSH1 0x80 PUSH1 0x3 NOT CALLDATASIZE ADD SLT PUSH2 0x18 JUMPI PUSH2 0xBD9 PUSH2 0x3C4 JUMP JUMPDEST PUSH2 0xBE1 PUSH2 0x3E7 JUMP JUMPDEST SWAP1 PUSH1 0x44 CALLDATALOAD PUSH1 0x64 CALLDATALOAD SWAP3 PUSH8 0xFFFFFFFFFFFFFFFF DUP5 GT PUSH2 0x18 JUMPI CALLDATASIZE PUSH1 0x23 DUP6 ADD SLT ISZERO PUSH2 0x18 JUMPI PUSH2 0xC1A PUSH2 0x4D8 SWAP5 CALLDATASIZE SWAP1 PUSH1 0x24 DUP2 PUSH1 0x4 ADD CALLDATALOAD SWAP2 ADD PUSH2 0x913 JUMP JUMPDEST SWAP3 PUSH2 0x1770 JUMP JUMPDEST CALLVALUE PUSH2 0x18 JUMPI PUSH1 0x20 PUSH1 0x3 NOT CALLDATASIZE ADD SLT PUSH2 0x18 JUMPI PUSH1 0x4 CALLDATALOAD PUSH0 MSTORE PUSH1 0x7 PUSH1 0x20 MSTORE PUSH2 0x2D8 PUSH2 0xDD4 PUSH2 0x2CC PUSH2 0xDE7 PUSH2 0xCE7 PUSH2 0xDE2 PUSH1 0x40 PUSH0 KECCAK256 PUSH2 0xDD4 PUSH2 0xD5F PUSH1 0x40 MLOAD PUSH2 0xC63 DUP2 PUSH2 0x875 JUMP JUMPDEST PUSH2 0xC6C DUP5 PUSH2 0x111D JUMP JUMPDEST DUP2 MSTORE PUSH2 0xCE1 PUSH2 0xD10 PUSH2 0xCA6 PUSH2 0xC96 PUSH1 0x2 PUSH2 0xC88 PUSH1 0x1 DUP11 ADD PUSH2 0x111D JUMP JUMPDEST SWAP9 PUSH1 0x20 DUP8 ADD SWAP10 DUP11 MSTORE ADD PUSH2 0x111D JUMP JUMPDEST SWAP4 DUP5 PUSH1 0x40 DUP3 ADD MSTORE MLOAD SWAP7 MLOAD SWAP4 PUSH2 0x1C0D JUMP JUMPDEST SWAP3 PUSH2 0xCE1 PUSH1 0x40 MLOAD SWAP10 DUP11 SWAP9 PUSH2 0xCE1 PUSH1 0x20 DUP12 ADD PUSH1 0x9 SWAP1 PUSH32 0x7B226E616D65223A220000000000000000000000000000000000000000000000 DUP2 MSTORE ADD SWAP1 JUMP JUMPDEST SWAP1 PUSH2 0x14A7 JUMP JUMPDEST PUSH32 0x222C226465736372697074696F6E223A22000000000000000000000000000000 DUP2 MSTORE PUSH1 0x11 ADD SWAP1 JUMP JUMPDEST PUSH32 0x222C22696D616765223A22646174613A696D6167652F7376672B786D6C3B6261 DUP2 MSTORE PUSH32 0x736536342C000000000000000000000000000000000000000000000000000000 PUSH1 0x20 DUP3 ADD MSTORE PUSH1 0x25 ADD SWAP1 JUMP JUMPDEST PUSH32 0x222C2261747472696275746573223A5B7B2274726169745F74797065223A2243 DUP2 MSTORE PUSH32 0x6F6D70616E79222C2276616C7565223A2241686E4C616220426C6F636B636861 PUSH1 0x20 DUP3 ADD MSTORE PUSH32 0x696E20436F6D70616E79227D5D7D000000000000000000000000000000000000 PUSH1 0x40 DUP3 ADD MSTORE PUSH1 0x4E ADD SWAP1 JUMP JUMPDEST SUB PUSH1 0x1F NOT DUP2 ADD DUP4 MSTORE DUP3 PUSH2 0x8B3 JUMP JUMPDEST PUSH2 0x1C0D JUMP JUMPDEST PUSH1 0x40 MLOAD PUSH32 0x646174613A6170706C69636174696F6E2F6A736F6E3B6261736536342C000000 PUSH1 0x20 DUP3 ADD MSTORE SWAP3 DUP4 SWAP2 PUSH1 0x3D DUP4 ADD PUSH2 0xCE1 JUMP JUMPDEST CALLVALUE PUSH2 0x18 JUMPI PUSH1 0x60 PUSH1 0x3 NOT CALLDATASIZE ADD SLT PUSH2 0x18 JUMPI PUSH1 0x4 CALLDATALOAD PUSH8 0xFFFFFFFFFFFFFFFF DUP2 GT PUSH2 0x18 JUMPI PUSH2 0xE4D SWAP1 CALLDATASIZE SWAP1 PUSH1 0x4 ADD PUSH2 0x949 JUMP JUMPDEST PUSH1 0x24 CALLDATALOAD PUSH8 0xFFFFFFFFFFFFFFFF DUP2 GT PUSH2 0x18 JUMPI PUSH2 0xE6D SWAP1 CALLDATASIZE SWAP1 PUSH1 0x4 ADD PUSH2 0x949 JUMP JUMPDEST SWAP1 PUSH1 0x44 CALLDATALOAD PUSH8 0xFFFFFFFFFFFFFFFF DUP2 GT PUSH2 0x18 JUMPI PUSH2 0xE8E SWAP1 CALLDATASIZE SWAP1 PUSH1 0x4 ADD PUSH2 0x949 JUMP JUMPDEST SWAP2 PUSH1 0x1C SLOAD SWAP2 DUP3 NUMBER SUB SWAP2 NUMBER DUP4 GT PUSH2 0x104F JUMPI PUSH2 0xFF5 PUSH2 0xEB1 PUSH2 0x2D8 SWAP7 PUSH2 0x1022 SWAP6 PUSH2 0x1502 JUMP JUMPDEST PUSH2 0xEB9 PUSH2 0x1C74 JUMP JUMPDEST POP PUSH2 0xF7D PUSH2 0xED7 PUSH2 0xED2 PUSH2 0xECC DUP5 PUSH2 0x1206 JUMP JUMPDEST MLOAD PUSH2 0x190F JUMP JUMPDEST PUSH2 0x1CE1 JUMP JUMPDEST POP SWAP2 PUSH2 0xF73 PUSH2 0xEEB PUSH2 0xED2 PUSH2 0xECC DUP5 PUSH2 0x1218 JUMP JUMPDEST POP SWAP2 PUSH2 0xF69 PUSH2 0xEFF PUSH2 0xED2 PUSH2 0xECC DUP5 PUSH2 0x1228 JUMP JUMPDEST POP PUSH2 0xF5F PUSH2 0xF17 PUSH2 0xF12 PUSH2 0xECC DUP7 PUSH2 0x1238 JUMP JUMPDEST PUSH2 0x1CF2 JUMP JUMPDEST POP SWAP2 PUSH2 0xF55 PUSH2 0xF3B PUSH2 0xF12 PUSH2 0xECC PUSH2 0xF34 PUSH2 0xF12 PUSH2 0xECC DUP12 PUSH2 0x1248 JUMP JUMPDEST POP SWAP9 PUSH2 0x1258 JUMP JUMPDEST POP SWAP8 PUSH2 0xF4E PUSH2 0xF48 PUSH2 0x8D6 JUMP JUMPDEST SWAP12 PUSH2 0x111D JUMP JUMPDEST DUP12 MSTORE PUSH2 0x111D JUMP JUMPDEST PUSH1 0x20 DUP11 ADD MSTORE PUSH2 0x111D JUMP JUMPDEST PUSH1 0x40 DUP9 ADD MSTORE PUSH2 0x111D JUMP JUMPDEST PUSH1 0x60 DUP7 ADD MSTORE PUSH2 0x111D JUMP JUMPDEST PUSH1 0x80 DUP5 ADD MSTORE PUSH2 0x111D JUMP JUMPDEST PUSH1 0xA0 DUP3 ADD MSTORE TIMESTAMP PUSH1 0xC0 DUP3 ADD MSTORE DUP6 PUSH1 0xE0 DUP3 ADD MSTORE PUSH2 0xF96 PUSH2 0x1D03 JUMP JUMPDEST PUSH2 0x100 DUP3 ADD MSTORE PUSH2 0xFA4 PUSH2 0x1D3E JUMP JUMPDEST PUSH2 0x120 DUP3 ADD MSTORE PUSH2 0xFB2 PUSH2 0x1D79 JUMP JUMPDEST PUSH2 0x140 DUP3 ADD MSTORE PUSH2 0xFC0 PUSH2 0x1DB4 JUMP JUMPDEST PUSH2 0x160 DUP3 ADD MSTORE PUSH2 0xFCE PUSH2 0x1DB4 JUMP JUMPDEST PUSH2 0x180 DUP3 ADD MSTORE PUSH2 0xFDC PUSH2 0x1DEF JUMP JUMPDEST PUSH2 0x1A0 DUP3 ADD MSTORE PUSH2 0xFEA PUSH2 0x1DEF JUMP JUMPDEST PUSH2 0x1C0 DUP3 ADD MSTORE PUSH2 0x1E2A JUMP JUMPDEST SWAP1 PUSH2 0xFFE PUSH2 0x8E8 JUMP JUMPDEST SWAP3 DUP4 MSTORE PUSH1 0x20 DUP4 ADD MSTORE PUSH1 0x40 DUP3 ADD MSTORE PUSH2 0x101D DUP4 PUSH0 MSTORE PUSH1 0x7 PUSH1 0x20 MSTORE PUSH1 0x40 PUSH0 KECCAK256 SWAP1 JUMP JUMPDEST PUSH2 0x1A37 JUMP JUMPDEST PUSH2 0x102C DUP2 CALLER PUSH2 0x227B JUMP JUMPDEST PUSH2 0x103F PUSH2 0x103A PUSH1 0x1C SLOAD PUSH2 0x1B27 JUMP JUMPDEST PUSH1 0x1C SSTORE JUMP JUMPDEST PUSH1 0x40 MLOAD SWAP1 DUP2 MSTORE SWAP1 DUP2 SWAP1 PUSH1 0x20 DUP3 ADD SWAP1 JUMP JUMPDEST PUSH2 0x145E JUMP JUMPDEST CALLVALUE PUSH2 0x18 JUMPI PUSH1 0x40 PUSH1 0x3 NOT CALLDATASIZE ADD SLT PUSH2 0x18 JUMPI PUSH1 0x20 PUSH1 0xFF PUSH2 0x10C0 PUSH2 0x1074 PUSH2 0x3C4 JUMP JUMPDEST PUSH20 0xFFFFFFFFFFFFFFFFFFFFFFFFFFFFFFFFFFFFFFFF PUSH2 0x1091 PUSH2 0x3E7 JUMP JUMPDEST SWAP2 AND PUSH0 MSTORE PUSH1 0x5 DUP5 MSTORE PUSH1 0x40 PUSH0 KECCAK256 SWAP1 PUSH20 0xFFFFFFFFFFFFFFFFFFFFFFFFFFFFFFFFFFFFFFFF AND PUSH0 MSTORE PUSH1 0x20 MSTORE PUSH1 0x40 PUSH0 KECCAK256 SWAP1 JUMP JUMPDEST SLOAD AND PUSH1 0x40 MLOAD SWAP1 ISZERO ISZERO DUP2 MSTORE RETURN JUMPDEST SWAP1 PUSH1 0x1 DUP3 DUP2 SHR SWAP3 AND DUP1 ISZERO PUSH2 0x1113 JUMPI JUMPDEST PUSH1 0x20 DUP4 LT EQ PUSH2 0x10E6 JUMPI JUMP JUMPDEST PUSH32 0x4E487B7100000000000000000000000000000000000000000000000000000000 PUSH0 MSTORE PUSH1 0x22 PUSH1 0x4 MSTORE PUSH1 0x24 PUSH0 REVERT JUMPDEST SWAP2 PUSH1 0x7F AND SWAP2 PUSH2 0x10DB JUMP JUMPDEST SWAP1 PUSH1 0x40 MLOAD SWAP2 DUP3 PUSH0 DUP3 SLOAD SWAP3 PUSH2 0x1130 DUP5 PUSH2 0x10CC JUMP JUMPDEST DUP1 DUP5 MSTORE SWAP4 PUSH1 0x1 DUP2 AND SWAP1 DUP2 ISZERO PUSH2 0x1199 JUMPI POP PUSH1 0x1 EQ PUSH2 0x1155 JUMPI JUMPDEST POP PUSH2 0x8E6 SWAP3 POP SUB DUP4 PUSH2 0x8B3 JUMP JUMPDEST SWAP1 POP PUSH0 SWAP3 SWAP2 SWAP3 MSTORE PUSH1 0x20 PUSH0 KECCAK256 SWAP1 PUSH0 SWAP2 JUMPDEST DUP2 DUP4 LT PUSH2 0x117D JUMPI POP POP SWAP1 PUSH1 0x20 PUSH2 0x8E6 SWAP3 DUP3 ADD ADD PUSH0 PUSH2 0x1148 JUMP JUMPDEST PUSH1 0x20 SWAP2 SWAP4 POP DUP1 PUSH1 0x1 SWAP2 SLOAD DUP4 DUP6 DUP10 ADD ADD MSTORE ADD SWAP2 ADD SWAP1 SWAP2 DUP5 SWAP3 PUSH2 0x1164 JUMP JUMPDEST PUSH1 0x20 SWAP4 POP PUSH2 0x8E6 SWAP6 SWAP3 POP PUSH32 0xFFFFFFFFFFFFFFFFFFFFFFFFFFFFFFFFFFFFFFFFFFFFFFFFFFFFFFFFFFFFFF00 SWAP2 POP AND DUP3 DUP5 ADD MSTORE ISZERO ISZERO PUSH1 0x5 SHL DUP3 ADD ADD PUSH0 PUSH2 0x1148 JUMP JUMPDEST PUSH32 0x4E487B7100000000000000000000000000000000000000000000000000000000 PUSH0 MSTORE PUSH1 0x32 PUSH1 0x4 MSTORE PUSH1 0x24 PUSH0 REVERT JUMPDEST DUP1 MLOAD ISZERO PUSH2 0x1213 JUMPI PUSH1 0x20 ADD SWAP1 JUMP JUMPDEST PUSH2 0x11D9 JUMP JUMPDEST DUP1 MLOAD PUSH1 0x1 LT ISZERO PUSH2 0x1213 JUMPI PUSH1 0x40 ADD SWAP1 JUMP JUMPDEST DUP1 MLOAD PUSH1 0x2 LT ISZERO PUSH2 0x1213 JUMPI PUSH1 0x60 ADD SWAP1 JUMP JUMPDEST DUP1 MLOAD PUSH1 0x3 LT ISZERO PUSH2 0x1213 JUMPI PUSH1 0x80 ADD SWAP1 JUMP JUMPDEST DUP1 MLOAD PUSH1 0x4 LT ISZERO PUSH2 0x1213 JUMPI PUSH1 0xA0 ADD SWAP1 JUMP JUMPDEST DUP1 MLOAD PUSH1 0x5 LT ISZERO PUSH2 0x1213 JUMPI PUSH1 0xC0 ADD SWAP1 JUMP JUMPDEST SWAP2 SWAP1 PUSH2 0x9D8 PUSH2 0x127B SWAP5 DUP3 SWAP8 SWAP7 CALLDATASIZE SWAP2 PUSH2 0x913 JUMP JUMPDEST PUSH0 JUMPDEST DUP4 DUP2 LT PUSH2 0x128C JUMPI POP POP POP POP PUSH0 SWAP1 JUMP JUMPDEST DUP2 MLOAD DUP2 LT ISZERO PUSH2 0x1213 JUMPI DUP3 PUSH1 0x20 DUP3 PUSH1 0x5 SHL DUP5 ADD ADD MLOAD EQ PUSH2 0x12AD JUMPI PUSH1 0x1 ADD PUSH2 0x127D JUMP JUMPDEST POP POP POP POP PUSH1 0x1 SWAP1 JUMP JUMPDEST SWAP2 SWAP1 SWAP2 PUSH20 0xFFFFFFFFFFFFFFFFFFFFFFFFFFFFFFFFFFFFFFFF DUP4 AND SWAP1 DUP2 ISZERO PUSH2 0x141E JUMPI PUSH20 0xFFFFFFFFFFFFFFFFFFFFFFFFFFFFFFFFFFFFFFFF SWAP2 DUP4 PUSH0 MSTORE PUSH1 0x2 PUSH1 0x20 MSTORE DUP4 PUSH2 0x1318 PUSH1 0x40 PUSH0 KECCAK256 PUSH20 0xFFFFFFFFFFFFFFFFFFFFFFFFFFFFFFFFFFFFFFFF SWAP1 SLOAD AND SWAP1 JUMP JUMPDEST SWAP2 CALLER PUSH2 0x140E JUMPI JUMPDEST PUSH2 0x136D DUP6 DUP5 AND SWAP8 DUP9 PUSH2 0x13D1 JUMPI JUMPDEST PUSH2 0x1354 DUP2 PUSH20 0xFFFFFFFFFFFFFFFFFFFFFFFFFFFFFFFFFFFFFFFF AND PUSH0 MSTORE PUSH1 0x3 PUSH1 0x20 MSTORE PUSH1 0x40 PUSH0 KECCAK256 SWAP1 JUMP JUMPDEST PUSH1 0x1 DUP2 SLOAD ADD SWAP1 SSTORE PUSH2 0x498 DUP5 PUSH0 MSTORE PUSH1 0x2 PUSH1 0x20 MSTORE PUSH1 0x40 PUSH0 KECCAK256 SWAP1 JUMP JUMPDEST DUP7 PUSH32 0xDDF252AD1BE2C89B69C2B068FC378DAA952BA7F163C4A11628F55A4DF523B3EF PUSH0 DUP1 LOG4 POP AND DUP1 DUP4 SUB PUSH2 0x13A0 JUMPI POP POP POP JUMP JUMPDEST PUSH32 0x64283D7B00000000000000000000000000000000000000000000000000000000 PUSH0 MSTORE PUSH1 0x4 MSTORE PUSH1 0x24 MSTORE PUSH1 0x44 MSTORE PUSH1 0x64 PUSH0 REVERT JUMPDEST PUSH2 0x13DA DUP5 PUSH2 0x234A JUMP JUMPDEST PUSH2 0x1402 DUP6 PUSH20 0xFFFFFFFFFFFFFFFFFFFFFFFFFFFFFFFFFFFFFFFF AND PUSH0 MSTORE PUSH1 0x3 PUSH1 0x20 MSTORE PUSH1 0x40 PUSH0 KECCAK256 SWAP1 JUMP JUMPDEST PUSH0 NOT DUP2 SLOAD ADD SWAP1 SSTORE PUSH2 0x132C JUMP JUMPDEST PUSH2 0x1419 DUP3 CALLER DUP6 PUSH2 0x2384 JUMP JUMPDEST PUSH2 0x131F JUMP JUMPDEST PUSH32 0x64A0AE9200000000000000000000000000000000000000000000000000000000 PUSH0 MSTORE PUSH0 PUSH1 0x4 MSTORE PUSH1 0x24 PUSH0 REVERT JUMPDEST PUSH1 0x40 MLOAD SWAP1 PUSH2 0x1459 PUSH1 0x20 DUP4 PUSH2 0x8B3 JUMP JUMPDEST PUSH0 DUP3 MSTORE JUMP JUMPDEST PUSH32 0x4E487B7100000000000000000000000000000000000000000000000000000000 PUSH0 MSTORE PUSH1 0x11 PUSH1 0x4 MSTORE PUSH1 0x24 PUSH0 REVERT JUMPDEST SWAP1 PUSH1 0x1 DUP3 ADD DUP1 SWAP3 GT PUSH2 0x104F JUMPI JUMP JUMPDEST SWAP1 PUSH1 0x2 DUP3 ADD DUP1 SWAP3 GT PUSH2 0x104F JUMPI JUMP JUMPDEST DUP1 MLOAD SWAP2 SWAP1 DUP3 SWAP1 PUSH1 0x20 ADD DUP3 MCOPY ADD PUSH0 DUP2 MSTORE SWAP1 JUMP JUMPDEST PUSH8 0xFFFFFFFFFFFFFFFF DUP2 GT PUSH2 0x891 JUMPI PUSH1 0x5 SHL PUSH1 0x20 ADD SWAP1 JUMP JUMPDEST SWAP1 PUSH2 0x14DB DUP3 PUSH2 0x14B9 JUMP JUMPDEST PUSH2 0x14E8 PUSH1 0x40 MLOAD SWAP2 DUP3 PUSH2 0x8B3 JUMP JUMPDEST DUP3 DUP2 MSTORE PUSH1 0x1F NOT PUSH2 0x14F8 DUP3 SWAP5 PUSH2 0x14B9 JUMP JUMPDEST ADD SWAP1 PUSH1 0x20 CALLDATASIZE SWAP2 ADD CALLDATACOPY JUMP JUMPDEST BLOCKHASH SWAP1 DUP2 ISZERO PUSH2 0x15E3 JUMPI SWAP1 PUSH2 0x1515 PUSH1 0xA PUSH2 0x148B JUMP JUMPDEST SWAP2 PUSH0 SWAP1 PUSH1 0x40 MLOAD PUSH2 0x152D DUP2 PUSH2 0xDD4 PUSH1 0x20 DUP3 ADD DUP1 SWAP6 PUSH2 0x14A7 JUMP JUMPDEST MLOAD SWAP1 KECCAK256 SWAP2 PUSH2 0x153B PUSH1 0xA PUSH2 0x14D1 JUMP JUMPDEST SWAP4 PUSH2 0x1556 PUSH2 0x1551 PUSH2 0x154C DUP4 PUSH1 0x8 SHR SWAP1 JUMP JUMPDEST PUSH2 0x148B JUMP JUMPDEST PUSH2 0x14D1 JUMP JUMPDEST SWAP2 PUSH1 0x1 PUSH2 0x1562 DUP5 PUSH2 0x1206 JUMP JUMPDEST MSTORE PUSH0 SWAP4 JUMPDEST PUSH1 0xA DUP6 LT PUSH2 0x1577 JUMPI POP POP POP POP POP POP SWAP1 JUMP JUMPDEST DUP3 PUSH1 0xA0 PUSH1 0x40 MLOAD DUP5 DUP2 MSTORE PUSH1 0xA PUSH1 0x20 DUP3 ADD MSTORE DUP8 PUSH1 0x40 DUP3 ADD MSTORE DUP4 PUSH1 0x60 DUP3 ADD MSTORE DUP9 PUSH1 0x80 DUP3 ADD MSTORE KECCAK256 MOD PUSH1 0x1 PUSH1 0xFF DUP3 AND SHL PUSH1 0x1 DUP3 PUSH1 0x8 SHR ADD PUSH1 0x5 SHL DUP7 ADD SWAP1 DUP2 MLOAD DUP2 DUP2 AND PUSH0 EQ PUSH2 0x15C9 JUMPI POP POP POP POP PUSH1 0x1 ADD SWAP5 JUMPDEST SWAP5 PUSH2 0x1566 JUMP JUMPDEST SWAP1 SWAP2 SWAP3 SWAP4 SWAP9 SWAP8 PUSH1 0x1 ADD SWAP4 DUP5 PUSH1 0x5 SHL DUP12 ADD MSTORE OR SWAP1 MSTORE SWAP4 PUSH2 0x15C3 JUMP JUMPDEST PUSH32 0x4E47846C00000000000000000000000000000000000000000000000000000000 PUSH0 MSTORE PUSH1 0x4 PUSH0 REVERT JUMPDEST SWAP3 SWAP2 DUP2 ISZERO DUP1 ISZERO PUSH2 0x1717 JUMPI JUMPDEST PUSH2 0x16EF JUMPI BLOCKHASH SWAP3 DUP4 ISZERO PUSH2 0x15E3 JUMPI PUSH2 0x162E SWAP1 SWAP3 SWAP2 SWAP3 PUSH2 0x148B JUMP JUMPDEST PUSH0 SWAP2 PUSH1 0x40 MLOAD PUSH2 0x1645 DUP2 PUSH2 0xDD4 PUSH1 0x20 DUP3 ADD DUP1 SWAP6 PUSH2 0x14A7 JUMP JUMPDEST MLOAD SWAP1 KECCAK256 SWAP1 PUSH2 0x1652 DUP5 PUSH2 0x14D1 JUMP JUMPDEST SWAP5 PUSH2 0x1663 PUSH2 0x1551 PUSH2 0x154C DUP5 PUSH1 0x8 SHR SWAP1 JUMP JUMPDEST SWAP3 PUSH1 0x1 PUSH2 0x166F DUP6 PUSH2 0x1206 JUMP JUMPDEST MSTORE PUSH0 SWAP5 JUMPDEST DUP7 DUP7 LT PUSH2 0x1684 JUMPI POP POP POP POP POP POP POP SWAP1 JUMP JUMPDEST DUP4 PUSH1 0xA0 PUSH1 0x40 MLOAD DUP6 DUP2 MSTORE DUP10 PUSH1 0x20 DUP3 ADD MSTORE DUP9 PUSH1 0x40 DUP3 ADD MSTORE DUP4 PUSH1 0x60 DUP3 ADD MSTORE DUP5 PUSH1 0x80 DUP3 ADD MSTORE KECCAK256 MOD PUSH1 0x1 PUSH1 0xFF DUP3 AND SHL PUSH1 0x1 DUP3 PUSH1 0x8 SHR ADD PUSH1 0x5 SHL DUP8 ADD SWAP1 DUP2 MLOAD DUP2 DUP2 AND PUSH0 EQ PUSH2 0x16D5 JUMPI POP POP POP POP PUSH1 0x1 ADD SWAP6 JUMPDEST SWAP6 PUSH2 0x1673 JUMP JUMPDEST SWAP1 SWAP2 SWAP3 SWAP4 SWAP10 SWAP9 PUSH1 0x1 ADD SWAP4 DUP5 PUSH1 0x5 SHL DUP13 ADD MSTORE OR SWAP1 MSTORE SWAP5 PUSH2 0x16CF JUMP JUMPDEST PUSH32 0x3492AEF600000000000000000000000000000000000000000000000000000000 PUSH0 MSTORE PUSH1 0x4 PUSH0 REVERT JUMPDEST POP DUP2 DUP5 LT PUSH2 0x1616 JUMP JUMPDEST DUP1 BLOCKHASH SWAP1 DUP2 ISZERO PUSH2 0x15E3 JUMPI DUP1 PUSH0 MSTORE PUSH1 0x6 PUSH1 0x20 MSTORE PUSH1 0x40 PUSH0 KECCAK256 SLOAD PUSH2 0x1748 JUMPI PUSH0 MSTORE PUSH1 0x6 PUSH1 0x20 MSTORE PUSH1 0x40 PUSH0 KECCAK256 SSTORE JUMP JUMPDEST PUSH32 0xC6B06E9900000000000000000000000000000000000000000000000000000000 PUSH0 MSTORE PUSH1 0x4 PUSH0 REVERT JUMPDEST SWAP1 SWAP3 SWAP2 PUSH2 0x177E DUP2 DUP6 DUP5 PUSH2 0x12B6 JUMP JUMPDEST DUP4 EXTCODESIZE PUSH2 0x178B JUMPI JUMPDEST POP POP POP POP JUMP JUMPDEST PUSH1 0x20 SWAP2 PUSH2 0x17C6 PUSH1 0x40 MLOAD SWAP5 DUP6 SWAP4 DUP5 SWAP4 PUSH32 0x150B7A0200000000000000000000000000000000000000000000000000000000 DUP6 MSTORE CALLER PUSH1 0x4 DUP7 ADD PUSH2 0x1BA3 JUMP JUMPDEST SUB DUP2 PUSH0 PUSH20 0xFFFFFFFFFFFFFFFFFFFFFFFFFFFFFFFFFFFFFFFF DUP8 AND GAS CALL PUSH0 SWAP2 DUP2 PUSH2 0x18DE JUMPI JUMPDEST POP PUSH2 0x184A JUMPI POP PUSH2 0x17F8 PUSH2 0x1BDE JUMP JUMPDEST DUP1 MLOAD SWAP2 SWAP1 DUP3 PUSH2 0x1843 JUMPI PUSH32 0x64A0AE9200000000000000000000000000000000000000000000000000000000 PUSH0 MSTORE PUSH20 0xFFFFFFFFFFFFFFFFFFFFFFFFFFFFFFFFFFFFFFFF DUP3 AND PUSH1 0x4 MSTORE PUSH1 0x24 PUSH0 REVERT JUMPDEST SWAP1 POP PUSH1 0x20 ADD REVERT JUMPDEST PUSH32 0xFFFFFFFF00000000000000000000000000000000000000000000000000000000 PUSH32 0x150B7A0200000000000000000000000000000000000000000000000000000000 SWAP2 AND SUB PUSH2 0x189D JUMPI POP PUSH0 DUP1 DUP1 DUP1 PUSH2 0x1785 JUMP JUMPDEST PUSH32 0x64A0AE9200000000000000000000000000000000000000000000000000000000 PUSH0 MSTORE PUSH20 0xFFFFFFFFFFFFFFFFFFFFFFFFFFFFFFFFFFFFFFFF AND PUSH1 0x4 MSTORE PUSH1 0x24 PUSH0 REVERT JUMPDEST PUSH2 0x1901 SWAP2 SWAP3 POP PUSH1 0x20 RETURNDATASIZE PUSH1 0x20 GT PUSH2 0x1908 JUMPI JUMPDEST PUSH2 0x18F9 DUP2 DUP4 PUSH2 0x8B3 JUMP JUMPDEST DUP2 ADD SWAP1 PUSH2 0x1B8E JUMP JUMPDEST SWAP1 PUSH0 PUSH2 0x17EA JUMP JUMPDEST POP RETURNDATASIZE PUSH2 0x18EF JUMP JUMPDEST SWAP1 PUSH0 NOT DUP3 ADD SWAP2 DUP3 GT PUSH2 0x104F JUMPI JUMP JUMPDEST PUSH1 0x1F DUP3 GT PUSH2 0x192A JUMPI POP POP POP JUMP JUMPDEST PUSH0 MSTORE PUSH1 0x20 PUSH0 KECCAK256 SWAP1 PUSH1 0x20 PUSH1 0x1F DUP5 ADD PUSH1 0x5 SHR DUP4 ADD SWAP4 LT PUSH2 0x1962 JUMPI JUMPDEST PUSH1 0x1F ADD PUSH1 0x5 SHR ADD SWAP1 JUMPDEST DUP2 DUP2 LT PUSH2 0x1957 JUMPI POP POP JUMP JUMPDEST PUSH0 DUP2 SSTORE PUSH1 0x1 ADD PUSH2 0x194C JUMP JUMPDEST SWAP1 SWAP2 POP DUP2 SWAP1 PUSH2 0x1943 JUMP JUMPDEST SWAP2 SWAP1 SWAP2 DUP3 MLOAD PUSH8 0xFFFFFFFFFFFFFFFF DUP2 GT PUSH2 0x891 JUMPI PUSH2 0x1994 DUP2 PUSH2 0x198E DUP5 SLOAD PUSH2 0x10CC JUMP JUMPDEST DUP5 PUSH2 0x191D JUMP JUMPDEST PUSH1 0x20 PUSH1 0x1F DUP3 GT PUSH1 0x1 EQ PUSH2 0x19D2 JUMPI DUP2 SWAP1 PUSH2 0x19C3 SWAP4 SWAP5 SWAP6 PUSH0 SWAP3 PUSH2 0x19C7 JUMPI JUMPDEST POP POP PUSH0 NOT DUP3 PUSH1 0x1 SHL SWAP3 PUSH1 0x3 SHL SHR NOT AND OR SWAP1 JUMP JUMPDEST SWAP1 SSTORE JUMP JUMPDEST ADD MLOAD SWAP1 POP PUSH0 DUP1 PUSH2 0x19B0 JUMP JUMPDEST PUSH1 0x1F NOT DUP3 AND SWAP1 PUSH2 0x19E5 DUP5 PUSH0 MSTORE PUSH1 0x20 PUSH0 KECCAK256 SWAP1 JUMP JUMPDEST SWAP2 PUSH0 JUMPDEST DUP2 DUP2 LT PUSH2 0x1A1F JUMPI POP SWAP6 DUP4 PUSH1 0x1 SWAP6 SWAP7 SWAP8 LT PUSH2 0x1A07 JUMPI JUMPDEST POP POP POP DUP2 SHL ADD SWAP1 SSTORE JUMP JUMPDEST ADD MLOAD PUSH0 NOT PUSH1 0xF8 DUP5 PUSH1 0x3 SHL AND SHR NOT AND SWAP1 SSTORE PUSH0 DUP1 DUP1 PUSH2 0x19FD JUMP JUMPDEST SWAP2 SWAP3 PUSH1 0x20 PUSH1 0x1 DUP2 SWAP3 DUP7 DUP12 ADD MLOAD DUP2 SSTORE ADD SWAP5 ADD SWAP3 ADD PUSH2 0x19E8 JUMP JUMPDEST SWAP2 SWAP1 SWAP2 DUP3 MLOAD SWAP3 DUP4 MLOAD PUSH8 0xFFFFFFFFFFFFFFFF DUP2 GT PUSH2 0x891 JUMPI PUSH2 0x1A62 DUP2 PUSH2 0x1A5C DUP6 SLOAD PUSH2 0x10CC JUMP JUMPDEST DUP6 PUSH2 0x191D JUMP JUMPDEST PUSH1 0x20 PUSH1 0x1F DUP3 GT PUSH1 0x1 EQ PUSH2 0x1AB5 JUMPI SWAP2 PUSH2 0x1A98 DUP3 PUSH1 0x40 SWAP4 PUSH1 0x2 SWAP6 PUSH2 0x8E6 SWAP9 SWAP10 PUSH0 SWAP3 PUSH2 0x19C7 JUMPI POP POP PUSH0 NOT DUP3 PUSH1 0x1 SHL SWAP3 PUSH1 0x3 SHL SHR NOT AND OR SWAP1 JUMP JUMPDEST DUP5 SSTORE JUMPDEST PUSH2 0x1AAC PUSH1 0x20 DUP3 ADD MLOAD PUSH1 0x1 DUP7 ADD PUSH2 0x196C JUMP JUMPDEST ADD MLOAD SWAP2 ADD PUSH2 0x196C JUMP JUMPDEST PUSH1 0x1F NOT DUP3 AND SWAP6 PUSH2 0x1AC8 DUP6 PUSH0 MSTORE PUSH1 0x20 PUSH0 KECCAK256 SWAP1 JUMP JUMPDEST SWAP7 PUSH0 JUMPDEST DUP2 DUP2 LT PUSH2 0x1B0F JUMPI POP SWAP3 PUSH2 0x8E6 SWAP7 SWAP8 PUSH1 0x2 SWAP6 SWAP4 PUSH1 0x1 SWAP4 DUP4 PUSH1 0x40 SWAP8 LT PUSH2 0x1AF7 JUMPI JUMPDEST POP POP POP DUP2 SHL ADD DUP5 SSTORE PUSH2 0x1A9B JUMP JUMPDEST ADD MLOAD PUSH0 NOT PUSH1 0xF8 DUP5 PUSH1 0x3 SHL AND SHR NOT AND SWAP1 SSTORE PUSH0 DUP1 DUP1 PUSH2 0x1AEA JUMP JUMPDEST DUP4 DUP4 ADD MLOAD DUP10 SSTORE PUSH1 0x1 SWAP1 SWAP9 ADD SWAP8 PUSH1 0x20 SWAP4 DUP5 ADD SWAP4 ADD PUSH2 0x1ACB JUMP JUMPDEST PUSH0 NOT DUP2 EQ PUSH2 0x104F JUMPI PUSH1 0x1 ADD SWAP1 JUMP JUMPDEST DUP1 PUSH0 MSTORE PUSH1 0x2 PUSH1 0x20 MSTORE PUSH20 0xFFFFFFFFFFFFFFFFFFFFFFFFFFFFFFFFFFFFFFFF PUSH1 0x40 PUSH0 KECCAK256 SLOAD AND SWAP1 DUP2 ISZERO PUSH2 0x1B63 JUMPI POP SWAP1 JUMP JUMPDEST PUSH32 0x7E27328900000000000000000000000000000000000000000000000000000000 PUSH0 MSTORE PUSH1 0x4 MSTORE PUSH1 0x24 PUSH0 REVERT JUMPDEST SWAP1 DUP2 PUSH1 0x20 SWAP2 SUB SLT PUSH2 0x18 JUMPI MLOAD PUSH2 0x282 DUP2 PUSH2 0x150 JUMP JUMPDEST SWAP1 SWAP3 PUSH20 0xFFFFFFFFFFFFFFFFFFFFFFFFFFFFFFFFFFFFFFFF PUSH1 0x80 SWAP4 DUP2 PUSH2 0x282 SWAP8 SWAP7 AND DUP5 MSTORE AND PUSH1 0x20 DUP4 ADD MSTORE PUSH1 0x40 DUP3 ADD MSTORE DUP2 PUSH1 0x60 DUP3 ADD MSTORE ADD SWAP1 PUSH2 0x24C JUMP JUMPDEST RETURNDATASIZE ISZERO PUSH2 0x1C08 JUMPI RETURNDATASIZE SWAP1 PUSH2 0x1BEF DUP3 PUSH2 0x8F7 JUMP JUMPDEST SWAP2 PUSH2 0x1BFD PUSH1 0x40 MLOAD SWAP4 DUP5 PUSH2 0x8B3 JUMP JUMPDEST DUP3 MSTORE RETURNDATASIZE PUSH0 PUSH1 0x20 DUP5 ADD RETURNDATACOPY JUMP JUMPDEST PUSH1 0x60 SWAP1 JUMP JUMPDEST PUSH1 0x40 MLOAD PUSH2 0x282 SWAP2 PUSH2 0x1C1F PUSH1 0x60 DUP4 PUSH2 0x8B3 JUMP JUMPDEST PUSH1 0x40 DUP3 MSTORE PUSH32 0x4142434445464748494A4B4C4D4E4F505152535455565758595A616263646566 PUSH1 0x20 DUP4 ADD MSTORE PUSH32 0x6768696A6B6C6D6E6F707172737475767778797A303132333435363738392B2F PUSH1 0x40 DUP4 ADD MSTORE PUSH2 0x2533 JUMP JUMPDEST PUSH1 0x40 MLOAD SWAP1 PUSH2 0x1C81 DUP3 PUSH2 0x896 JUMP JUMPDEST PUSH1 0x60 PUSH2 0x1C0 DUP4 DUP3 DUP2 MSTORE DUP3 PUSH1 0x20 DUP3 ADD MSTORE DUP3 PUSH1 0x40 DUP3 ADD MSTORE DUP3 DUP1 DUP3 ADD MSTORE DUP3 PUSH1 0x80 DUP3 ADD MSTORE DUP3 PUSH1 0xA0 DUP3 ADD MSTORE PUSH0 PUSH1 0xC0 DUP3 ADD MSTORE PUSH0 PUSH1 0xE0 DUP3 ADD MSTORE DUP3 PUSH2 0x100 DUP3 ADD MSTORE DUP3 PUSH2 0x120 DUP3 ADD MSTORE DUP3 PUSH2 0x140 DUP3 ADD MSTORE DUP3 PUSH2 0x160 DUP3 ADD MSTORE DUP3 PUSH2 0x180 DUP3 ADD MSTORE DUP3 PUSH2 0x1A0 DUP3 ADD MSTORE ADD MSTORE JUMP JUMPDEST PUSH1 0xA DUP2 LT ISZERO PUSH2 0x1213 JUMPI PUSH1 0x8 ADD SWAP1 PUSH0 SWAP1 JUMP JUMPDEST PUSH1 0xA DUP2 LT ISZERO PUSH2 0x1213 JUMPI PUSH1 0x12 ADD SWAP1 PUSH0 SWAP1 JUMP JUMPDEST PUSH1 0x40 MLOAD SWAP1 PUSH2 0x1D12 PUSH1 0x40 DUP4 PUSH2 0x8B3 JUMP JUMPDEST PUSH1 0x7 DUP3 MSTORE PUSH32 0x2366663766353000000000000000000000000000000000000000000000000000 PUSH1 0x20 DUP4 ADD MSTORE JUMP JUMPDEST PUSH1 0x40 MLOAD SWAP1 PUSH2 0x1D4D PUSH1 0x40 DUP4 PUSH2 0x8B3 JUMP JUMPDEST PUSH1 0x7 DUP3 MSTORE PUSH32 0x2341394635463200000000000000000000000000000000000000000000000000 PUSH1 0x20 DUP4 ADD MSTORE JUMP JUMPDEST PUSH1 0x40 MLOAD SWAP1 PUSH2 0x1D88 PUSH1 0x40 DUP4 PUSH2 0x8B3 JUMP JUMPDEST PUSH1 0x7 DUP3 MSTORE PUSH32 0x2366666666666600000000000000000000000000000000000000000000000000 PUSH1 0x20 DUP4 ADD MSTORE JUMP JUMPDEST PUSH1 0x40 MLOAD SWAP1 PUSH2 0x1DC3 PUSH1 0x40 DUP4 PUSH2 0x8B3 JUMP JUMPDEST PUSH1 0x1 DUP3 MSTORE PUSH32 0x3000000000000000000000000000000000000000000000000000000000000000 PUSH1 0x20 DUP4 ADD MSTORE JUMP JUMPDEST PUSH1 0x40 MLOAD SWAP1 PUSH2 0x1DFE PUSH1 0x40 DUP4 PUSH2 0x8B3 JUMP JUMPDEST PUSH1 0x1 DUP3 MSTORE PUSH32 0x3100000000000000000000000000000000000000000000000000000000000000 PUSH1 0x20 DUP4 ADD MSTORE JUMP JUMPDEST PUSH1 0xE0 DUP2 ADD DUP1 MLOAD PUSH2 0x1E39 SWAP1 PUSH2 0x2DB3 JUMP JUMPDEST PUSH2 0x160 DUP4 ADD MLOAD SWAP2 PUSH2 0x180 DUP5 ADD MLOAD SWAP1 PUSH2 0x1A0 DUP6 ADD MLOAD PUSH2 0x1C0 DUP7 ADD MLOAD PUSH2 0x100 DUP8 ADD MLOAD SWAP2 PUSH2 0x120 DUP9 ADD MLOAD SWAP4 MLOAD PUSH2 0x1E6B SWAP1 PUSH2 0x2DB3 JUMP JUMPDEST SWAP5 PUSH1 0x40 MLOAD SWAP8 DUP9 SWAP8 PUSH1 0x20 DUP10 ADD PUSH2 0x1EF0 SWAP1 PUSH1 0x57 SWAP1 PUSH32 0x3C73766720786D6C6E733D22687474703A2F2F7777772E77332E6F72672F3230 DUP2 MSTORE PUSH32 0x30302F737667222077696474683D2235303022206865696768743D2235303022 PUSH1 0x20 DUP3 ADD MSTORE PUSH32 0x2076696577426F783D223020302035303020353030223E000000000000000000 PUSH1 0x40 DUP3 ADD MSTORE ADD SWAP1 JUMP JUMPDEST PUSH32 0x3C646566733E0000000000000000000000000000000000000000000000000000 DUP2 MSTORE PUSH1 0x6 ADD PUSH32 0x3C6C696E6561724772616469656E742069643D226772616469656E7400000000 DUP2 MSTORE PUSH1 0x1C ADD PUSH2 0x1F45 SWAP2 PUSH2 0x14A7 JUMP JUMPDEST PUSH32 0x222078313D220000000000000000000000000000000000000000000000000000 DUP2 MSTORE PUSH1 0x6 ADD PUSH2 0x1F74 SWAP2 PUSH2 0x14A7 JUMP JUMPDEST PUSH32 0x222079313D220000000000000000000000000000000000000000000000000000 DUP2 MSTORE PUSH1 0x6 ADD PUSH2 0x1FA3 SWAP2 PUSH2 0x14A7 JUMP JUMPDEST PUSH32 0x222078323D220000000000000000000000000000000000000000000000000000 DUP2 MSTORE PUSH1 0x6 ADD PUSH2 0x1FD2 SWAP2 PUSH2 0x14A7 JUMP JUMPDEST PUSH32 0x222079323D220000000000000000000000000000000000000000000000000000 DUP2 MSTORE PUSH1 0x6 ADD PUSH2 0x2001 SWAP2 PUSH2 0x14A7 JUMP JUMPDEST PUSH32 0x223E000000000000000000000000000000000000000000000000000000000000 DUP2 MSTORE PUSH1 0x2 ADD PUSH32 0x3C73746F70206F66667365743D22302522207374796C653D2273746F702D636F DUP2 MSTORE PUSH32 0x6C6F723A00000000000000000000000000000000000000000000000000000000 PUSH1 0x20 DUP3 ADD MSTORE PUSH1 0x24 ADD PUSH2 0x207C SWAP2 PUSH2 0x14A7 JUMP JUMPDEST PUSH32 0x3B73746F702D6F7061636974793A3122202F3E00000000000000000000000000 DUP2 MSTORE PUSH1 0x13 ADD PUSH32 0x3C73746F70206F66667365743D223130302522207374796C653D2273746F702D DUP2 MSTORE PUSH32 0x636F6C6F723A0000000000000000000000000000000000000000000000000000 PUSH1 0x20 DUP3 ADD MSTORE PUSH1 0x26 ADD PUSH2 0x20F7 SWAP2 PUSH2 0x14A7 JUMP JUMPDEST PUSH32 0x3B73746F702D6F7061636974793A3122202F3E00000000000000000000000000 DUP2 MSTORE PUSH1 0x13 ADD PUSH32 0x3C2F6C696E6561724772616469656E743E000000000000000000000000000000 DUP2 MSTORE PUSH1 0x11 ADD PUSH32 0x3C2F646566733E00000000000000000000000000000000000000000000000000 DUP2 MSTORE PUSH1 0x7 ADD PUSH32 0x3C726563742077696474683D223130302522206865696768743D223130302522 DUP2 MSTORE PUSH32 0x2066696C6C3D2275726C28236772616469656E74000000000000000000000000 PUSH1 0x20 DUP3 ADD MSTORE PUSH1 0x34 ADD PUSH2 0x21BE SWAP2 PUSH2 0x14A7 JUMP JUMPDEST PUSH32 0x2922202F3E000000000000000000000000000000000000000000000000000000 DUP2 MSTORE PUSH1 0x5 ADD SUB PUSH1 0x1F NOT DUP2 ADD DUP3 MSTORE PUSH2 0x21F6 SWAP1 DUP3 PUSH2 0x8B3 JUMP JUMPDEST PUSH2 0x21FF DUP3 PUSH2 0x2632 JUMP JUMPDEST SWAP2 PUSH2 0x2209 DUP2 PUSH2 0x2786 JUMP JUMPDEST SWAP1 PUSH2 0x2213 SWAP1 PUSH2 0x2CBC JUMP JUMPDEST SWAP1 PUSH1 0x40 MLOAD SWAP4 DUP5 SWAP4 PUSH1 0x20 DUP6 ADD PUSH2 0x2227 SWAP2 PUSH2 0x14A7 JUMP JUMPDEST PUSH2 0x2230 SWAP2 PUSH2 0x14A7 JUMP JUMPDEST PUSH2 0x2239 SWAP2 PUSH2 0x14A7 JUMP JUMPDEST PUSH2 0x2242 SWAP2 PUSH2 0x14A7 JUMP JUMPDEST PUSH32 0x3C2F7376673E0000000000000000000000000000000000000000000000000000 DUP2 MSTORE PUSH1 0x6 ADD JUMPDEST SUB PUSH1 0x1F NOT DUP2 ADD DUP3 MSTORE PUSH2 0x282 SWAP1 DUP3 PUSH2 0x8B3 JUMP JUMPDEST SWAP1 PUSH20 0xFFFFFFFFFFFFFFFFFFFFFFFFFFFFFFFFFFFFFFFF DUP3 AND SWAP1 DUP2 ISZERO PUSH2 0x141E JUMPI DUP1 PUSH0 MSTORE PUSH1 0x2 PUSH1 0x20 MSTORE PUSH20 0xFFFFFFFFFFFFFFFFFFFFFFFFFFFFFFFFFFFFFFFF PUSH1 0x40 PUSH0 KECCAK256 SLOAD AND SWAP2 PUSH2 0x22F2 DUP4 ISZERO ISZERO SWAP5 DUP6 PUSH2 0x13D1 JUMPI PUSH2 0x1354 DUP2 PUSH20 0xFFFFFFFFFFFFFFFFFFFFFFFFFFFFFFFFFFFFFFFF AND PUSH0 MSTORE PUSH1 0x3 PUSH1 0x20 MSTORE PUSH1 0x40 PUSH0 KECCAK256 SWAP1 JUMP JUMPDEST DUP3 PUSH32 0xDDF252AD1BE2C89B69C2B068FC378DAA952BA7F163C4A11628F55A4DF523B3EF PUSH0 DUP1 LOG4 POP PUSH2 0x231E JUMPI JUMP JUMPDEST PUSH32 0x73C6AC6E00000000000000000000000000000000000000000000000000000000 PUSH0 MSTORE PUSH0 PUSH1 0x4 MSTORE PUSH1 0x24 PUSH0 REVERT JUMPDEST PUSH2 0x235C SWAP1 PUSH0 MSTORE PUSH1 0x4 PUSH1 0x20 MSTORE PUSH1 0x40 PUSH0 KECCAK256 SWAP1 JUMP JUMPDEST DUP1 SLOAD PUSH32 0xFFFFFFFFFFFFFFFFFFFFFFFF0000000000000000000000000000000000000000 AND SWAP1 SSTORE JUMP JUMPDEST SWAP2 SWAP1 SWAP2 PUSH2 0x23AF PUSH20 0xFFFFFFFFFFFFFFFFFFFFFFFFFFFFFFFFFFFFFFFF DUP5 AND DUP1 ISZERO ISZERO SWAP1 DUP2 PUSH2 0x2443 JUMPI POP ISZERO SWAP1 JUMP JUMPDEST PUSH2 0x23B8 JUMPI POP POP POP JUMP JUMPDEST PUSH20 0xFFFFFFFFFFFFFFFFFFFFFFFFFFFFFFFFFFFFFFFF AND PUSH2 0x23FD JUMPI PUSH32 0x7E27328900000000000000000000000000000000000000000000000000000000 PUSH0 MSTORE PUSH1 0x4 MSTORE PUSH1 0x24 PUSH0 REVERT JUMPDEST PUSH32 0x177E802F00000000000000000000000000000000000000000000000000000000 PUSH0 MSTORE PUSH20 0xFFFFFFFFFFFFFFFFFFFFFFFFFFFFFFFFFFFFFFFF SWAP1 SWAP2 AND PUSH1 0x4 MSTORE PUSH1 0x24 MSTORE PUSH1 0x44 PUSH0 REVERT JUMPDEST PUSH20 0xFFFFFFFFFFFFFFFFFFFFFFFFFFFFFFFFFFFFFFFF DUP5 AND DUP1 DUP3 EQ SWAP3 POP DUP3 ISZERO PUSH2 0x249C JUMPI JUMPDEST POP DUP2 ISZERO PUSH2 0x2472 JUMPI POP ISZERO SWAP1 JUMP JUMPDEST SWAP1 POP DUP4 PUSH0 MSTORE PUSH1 0x4 PUSH1 0x20 MSTORE PUSH20 0xFFFFFFFFFFFFFFFFFFFFFFFFFFFFFFFFFFFFFFFF PUSH1 0x40 PUSH0 KECCAK256 SLOAD AND EQ ISZERO SWAP1 JUMP JUMPDEST SWAP1 SWAP2 POP PUSH0 MSTORE PUSH1 0x5 PUSH1 0x20 MSTORE PUSH1 0xFF PUSH2 0x24D3 DUP7 PUSH1 0x40 PUSH0 KECCAK256 SWAP1 PUSH20 0xFFFFFFFFFFFFFFFFFFFFFFFFFFFFFFFFFFFFFFFF AND PUSH0 MSTORE PUSH1 0x20 MSTORE PUSH1 0x40 PUSH0 KECCAK256 SWAP1 JUMP JUMPDEST SLOAD AND SWAP1 PUSH0 PUSH2 0x2466 JUMP JUMPDEST SWAP1 DUP2 PUSH1 0x2 SHL SWAP2 PUSH32 0x3FFFFFFFFFFFFFFFFFFFFFFFFFFFFFFFFFFFFFFFFFFFFFFFFFFFFFFFFFFFFFFF DUP2 AND SUB PUSH2 0x104F JUMPI JUMP JUMPDEST SWAP1 PUSH2 0x2516 DUP3 PUSH2 0x8F7 JUMP JUMPDEST PUSH2 0x2523 PUSH1 0x40 MLOAD SWAP2 DUP3 PUSH2 0x8B3 JUMP JUMPDEST DUP3 DUP2 MSTORE PUSH1 0x1F NOT PUSH2 0x14F8 DUP3 SWAP5 PUSH2 0x8F7 JUMP JUMPDEST SWAP2 SWAP1 SWAP2 DUP1 MLOAD ISZERO PUSH2 0x2627 JUMPI PUSH2 0x2561 PUSH2 0x255C PUSH2 0x2557 PUSH2 0x2550 DUP5 MLOAD PUSH2 0x1499 JUMP JUMPDEST PUSH1 0x3 SWAP1 DIV SWAP1 JUMP JUMPDEST PUSH2 0x24DC JUMP JUMPDEST PUSH2 0x250C JUMP JUMPDEST SWAP1 PUSH1 0x20 DUP3 ADD SWAP1 DUP1 DUP2 MLOAD DUP3 ADD SWAP6 PUSH1 0x20 DUP8 ADD SWAP1 DUP2 MLOAD SWAP3 PUSH0 DUP4 MSTORE JUMPDEST DUP9 DUP2 LT PUSH2 0x25D9 JUMPI POP POP PUSH1 0x3 SWAP4 SWAP5 SWAP6 SWAP7 POP MSTORE MLOAD MOD DUP1 PUSH1 0x1 EQ PUSH2 0x25A9 JUMPI PUSH1 0x2 EQ PUSH2 0x259F JUMPI POP SWAP1 JUMP JUMPDEST PUSH0 NOT PUSH1 0x3D SWAP2 ADD MSTORE8 SWAP1 JUMP JUMPDEST POP PUSH32 0xFFFFFFFFFFFFFFFFFFFFFFFFFFFFFFFFFFFFFFFFFFFFFFFFFFFFFFFFFFFFFFFE DUP2 PUSH1 0x3D PUSH0 NOT DUP2 SWAP5 ADD MSTORE8 ADD MSTORE8 SWAP1 JUMP JUMPDEST PUSH1 0x3 PUSH1 0x4 SWAP2 SWAP10 SWAP7 SWAP10 ADD SWAP9 PUSH1 0x1 PUSH1 0x3F DUP12 MLOAD DUP3 DUP3 DUP3 PUSH1 0x12 SHR AND DUP8 ADD ADD MLOAD DUP5 MSTORE8 DUP3 DUP3 DUP3 PUSH1 0xC SHR AND DUP8 ADD ADD MLOAD DUP4 DUP6 ADD MSTORE8 DUP3 DUP3 DUP3 PUSH1 0x6 SHR AND DUP8 ADD ADD MLOAD PUSH1 0x2 DUP6 ADD MSTORE8 AND DUP5 ADD ADD MLOAD PUSH1 0x3 DUP3 ADD MSTORE8 ADD SWAP5 SWAP8 PUSH2 0x2579 JUMP JUMPDEST POP SWAP1 POP PUSH2 0x282 PUSH2 0x144A JUMP JUMPDEST PUSH2 0x282 PUSH2 0x272A SWAP2 PUSH1 0x7 PUSH2 0x2754 PUSH2 0x2651 PUSH1 0xE0 PUSH2 0x140 DUP6 ADD MLOAD SWAP5 ADD MLOAD PUSH2 0x2DB3 JUMP JUMPDEST PUSH1 0xC PUSH1 0x40 MLOAD SWAP7 DUP8 SWAP6 PUSH32 0x3C7465787420783D2232302220793D2236302220666F6E742D73697A653D2233 PUSH1 0x20 DUP9 ADD MSTORE PUSH32 0x352220666F6E742D7765696768743D22626F6C64222066696C6C3D2200000000 PUSH1 0x40 DUP9 ADD MSTORE PUSH1 0x42 PUSH2 0x26B4 PUSH1 0x5C DUP10 ADD DUP4 PUSH2 0x14A7 JUMP JUMPDEST PUSH32 0x223E426C6F636B636861696E20436C6173733C2F746578743E00000000000000 DUP2 MSTORE PUSH32 0x3C7465787420783D2232302220793D2239302220666F6E742D73697A653D2231 PUSH1 0x19 DUP3 ADD MSTORE PUSH32 0x34222066696C6C3D220000000000000000000000000000000000000000000000 PUSH1 0x39 DUP3 ADD MSTORE ADD SWAP1 PUSH2 0x14A7 JUMP JUMPDEST PUSH32 0x223E546F6B656E2049443A200000000000000000000000000000000000000000 DUP2 MSTORE ADD SWAP1 PUSH2 0x14A7 JUMP JUMPDEST PUSH32 0x3C2F746578743E00000000000000000000000000000000000000000000000000 DUP2 MSTORE ADD SUB PUSH1 0x1F NOT DUP2 ADD DUP4 MSTORE DUP3 PUSH2 0x8B3 JUMP JUMPDEST PUSH2 0x140 DUP2 ADD MLOAD SWAP1 DUP1 MLOAD SWAP1 PUSH1 0x20 DUP2 ADD MLOAD SWAP3 PUSH1 0x40 DUP3 ADD MLOAD SWAP2 PUSH1 0x60 DUP2 ADD MLOAD PUSH1 0x80 DUP3 ADD MLOAD SWAP2 PUSH1 0xA0 ADD MLOAD SWAP4 PUSH1 0x40 MLOAD SWAP7 DUP8 SWAP7 PUSH1 0x20 DUP9 ADD PUSH2 0x280A SWAP1 PUSH1 0x3D SWAP1 PUSH32 0x3C7465787420783D2232302220793D223135302220666F6E742D73697A653D22 DUP2 MSTORE PUSH32 0x32322220666F6E742D7765696768743D22626F6C64222066696C6C3D22000000 PUSH1 0x20 DUP3 ADD MSTORE ADD SWAP1 JUMP JUMPDEST PUSH2 0x2814 SWAP1 DUP8 PUSH2 0x14A7 JUMP JUMPDEST PUSH32 0x223E4C6561726E696E6773206B6579776F7264733C2F746578743E0000000000 DUP2 MSTORE PUSH1 0x1B ADD PUSH32 0x3C7465787420783D2232302220793D223138302220666F6E742D73697A653D22 DUP2 MSTORE PUSH32 0x3138222066696C6C3D2200000000000000000000000000000000000000000000 PUSH1 0x20 DUP3 ADD MSTORE PUSH1 0x2A ADD PUSH2 0x2890 SWAP1 DUP8 PUSH2 0x14A7 JUMP JUMPDEST PUSH32 0x223E312E20000000000000000000000000000000000000000000000000000000 DUP2 MSTORE PUSH1 0x5 ADD PUSH2 0x28BF SWAP2 PUSH2 0x14A7 JUMP JUMPDEST PUSH32 0x3C2F746578743E00000000000000000000000000000000000000000000000000 DUP2 MSTORE PUSH1 0x7 ADD PUSH32 0x3C7465787420783D2232302220793D223231302220666F6E742D73697A653D22 DUP2 MSTORE PUSH32 0x3138222066696C6C3D2200000000000000000000000000000000000000000000 PUSH1 0x20 DUP3 ADD MSTORE PUSH1 0x2A ADD PUSH2 0x293B SWAP1 DUP7 PUSH2 0x14A7 JUMP JUMPDEST PUSH32 0x223E322E20000000000000000000000000000000000000000000000000000000 DUP2 MSTORE PUSH1 0x5 ADD PUSH2 0x296A SWAP2 PUSH2 0x14A7 JUMP JUMPDEST PUSH32 0x3C2F746578743E00000000000000000000000000000000000000000000000000 DUP2 MSTORE PUSH1 0x7 ADD PUSH32 0x3C7465787420783D2232302220793D223234302220666F6E742D73697A653D22 DUP2 MSTORE PUSH32 0x3138222066696C6C3D2200000000000000000000000000000000000000000000 PUSH1 0x20 DUP3 ADD MSTORE PUSH1 0x2A ADD PUSH2 0x29E6 SWAP1 DUP6 PUSH2 0x14A7 JUMP JUMPDEST PUSH32 0x223E332E20000000000000000000000000000000000000000000000000000000 DUP2 MSTORE PUSH1 0x5 ADD PUSH2 0x2A15 SWAP2 PUSH2 0x14A7 JUMP JUMPDEST PUSH32 0x3C2F746578743E00000000000000000000000000000000000000000000000000 DUP2 MSTORE PUSH1 0x7 ADD PUSH32 0x3C7465787420783D2232302220793D223239302220666F6E742D73697A653D22 DUP2 MSTORE PUSH32 0x32322220666F6E742D7765696768743D22626F6C64222066696C6C3D22000000 PUSH1 0x20 DUP3 ADD MSTORE PUSH1 0x3D ADD PUSH2 0x2A91 SWAP1 DUP5 PUSH2 0x14A7 JUMP JUMPDEST PUSH32 0x223E5374756479206B6579776F7264733C2F746578743E000000000000000000 DUP2 MSTORE PUSH1 0x17 ADD PUSH32 0x3C7465787420783D2232302220793D223332302220666F6E742D73697A653D22 DUP2 MSTORE PUSH32 0x3138222066696C6C3D2200000000000000000000000000000000000000000000 PUSH1 0x20 DUP3 ADD MSTORE PUSH1 0x2A ADD PUSH2 0x2B0D SWAP1 DUP5 PUSH2 0x14A7 JUMP JUMPDEST PUSH32 0x223E312E20000000000000000000000000000000000000000000000000000000 DUP2 MSTORE PUSH1 0x5 ADD PUSH2 0x2B3C SWAP2 PUSH2 0x14A7 JUMP JUMPDEST PUSH32 0x3C2F746578743E00000000000000000000000000000000000000000000000000 DUP2 MSTORE PUSH1 0x7 ADD PUSH32 0x3C7465787420783D2232302220793D223335302220666F6E742D73697A653D22 DUP2 MSTORE PUSH32 0x3138222066696C6C3D2200000000000000000000000000000000000000000000 PUSH1 0x20 DUP3 ADD MSTORE PUSH1 0x2A ADD PUSH2 0x2BB8 SWAP1 DUP4 PUSH2 0x14A7 JUMP JUMPDEST PUSH32 0x223E322E20000000000000000000000000000000000000000000000000000000 DUP2 MSTORE PUSH1 0x5 ADD PUSH2 0x2BE7 SWAP2 PUSH2 0x14A7 JUMP JUMPDEST PUSH32 0x3C2F746578743E00000000000000000000000000000000000000000000000000 DUP2 MSTORE PUSH1 0x7 ADD PUSH32 0x3C7465787420783D2232302220793D223338302220666F6E742D73697A653D22 DUP2 MSTORE PUSH32 0x3138222066696C6C3D2200000000000000000000000000000000000000000000 PUSH1 0x20 DUP3 ADD MSTORE PUSH1 0x2A ADD PUSH2 0x2C62 SWAP2 PUSH2 0x14A7 JUMP JUMPDEST PUSH32 0x223E332E20000000000000000000000000000000000000000000000000000000 DUP2 MSTORE PUSH1 0x5 ADD PUSH2 0x2C91 SWAP2 PUSH2 0x14A7 JUMP JUMPDEST PUSH32 0x3C2F746578743E00000000000000000000000000000000000000000000000000 DUP2 MSTORE PUSH1 0x7 ADD PUSH2 0x2269 JUMP JUMPDEST PUSH2 0x282 PUSH1 0x7 PUSH2 0x2D39 SWAP3 PUSH2 0x2D63 PUSH2 0x2CDB PUSH1 0xC0 PUSH2 0x140 DUP5 ADD MLOAD SWAP4 ADD MLOAD PUSH2 0x2DB3 JUMP JUMPDEST PUSH1 0x12 PUSH1 0x40 MLOAD SWAP7 DUP8 SWAP5 PUSH32 0x3C7465787420783D2232302220793D223437302220666F6E742D73697A653D22 PUSH1 0x20 DUP8 ADD MSTORE PUSH32 0x3134222066696C6C3D2200000000000000000000000000000000000000000000 PUSH1 0x40 DUP8 ADD MSTORE PUSH1 0x4A DUP7 ADD SWAP1 PUSH2 0x14A7 JUMP JUMPDEST PUSH32 0x223E497373756554696D657374616D703A200000000000000000000000000000 DUP2 MSTORE ADD SWAP1 PUSH2 0x14A7 JUMP JUMPDEST PUSH32 0x3C2F746578743E00000000000000000000000000000000000000000000000000 DUP2 MSTORE SUB PUSH32 0xFFFFFFFFFFFFFFFFFFFFFFFFFFFFFFFFFFFFFFFFFFFFFFFFFFFFFFFFFFFFFFE7 DUP2 ADD DUP5 MSTORE ADD DUP3 PUSH2 0x8B3 JUMP JUMPDEST DUP1 PUSH0 SWAP2 PUSH27 0x184F03E93FF9F4DAA797ED6E38ED64BF6A1F010000000000000000 DUP3 LT ISZERO PUSH2 0x2EFA JUMPI JUMPDEST DUP1 PUSH14 0x4EE2D6D415B85ACEF8100000000 PUSH1 0xA SWAP3 LT ISZERO PUSH2 0x2EDE JUMPI JUMPDEST PUSH7 0x2386F26FC10000 DUP2 LT ISZERO PUSH2 0x2EC9 JUMPI JUMPDEST PUSH4 0x5F5E100 DUP2 LT ISZERO PUSH2 0x2EB7 JUMPI JUMPDEST PUSH2 0x2710 DUP2 LT ISZERO PUSH2 0x2EA7 JUMPI JUMPDEST PUSH1 0x64 DUP2 LT ISZERO PUSH2 0x2E98 JUMPI JUMPDEST LT ISZERO PUSH2 0x2E8D JUMPI JUMPDEST PUSH2 0x2E76 PUSH0 NOT PUSH1 0x21 PUSH2 0x2E40 PUSH1 0x1 DUP7 ADD PUSH2 0x250C JUMP JUMPDEST SWAP5 DUP6 ADD ADD JUMPDEST ADD SWAP2 PUSH32 0x3031323334353637383961626364656600000000000000000000000000000000 PUSH1 0xA DUP3 MOD BYTE DUP4 MSTORE8 PUSH1 0xA SWAP1 DIV SWAP1 JUMP JUMPDEST DUP1 ISZERO PUSH2 0x2E88 JUMPI PUSH0 NOT PUSH2 0x2E76 SWAP2 SWAP3 PUSH2 0x2E45 JUMP JUMPDEST POP POP SWAP1 JUMP JUMPDEST PUSH1 0x1 SWAP1 SWAP2 ADD SWAP1 PUSH2 0x2E2D JUMP JUMPDEST PUSH1 0x2 SWAP1 PUSH1 0x64 SWAP1 DIV SWAP4 ADD SWAP3 PUSH2 0x2E26 JUMP JUMPDEST PUSH1 0x4 SWAP1 PUSH2 0x2710 SWAP1 DIV SWAP4 ADD SWAP3 PUSH2 0x2E1C JUMP JUMPDEST PUSH1 0x8 SWAP1 PUSH4 0x5F5E100 SWAP1 DIV SWAP4 ADD SWAP3 PUSH2 0x2E11 JUMP JUMPDEST PUSH1 0x10 SWAP1 PUSH7 0x2386F26FC10000 SWAP1 DIV SWAP4 ADD SWAP3 PUSH2 0x2E04 JUMP JUMPDEST PUSH1 0x20 SWAP1 PUSH14 0x4EE2D6D415B85ACEF8100000000 SWAP1 DIV SWAP4 ADD SWAP3 PUSH2 0x2DF4 JUMP JUMPDEST POP PUSH1 0x40 SWAP2 POP PUSH27 0x184F03E93FF9F4DAA797ED6E38ED64BF6A1F010000000000000000 DUP2 DIV PUSH2 0x2DDA JUMP INVALID LOG2 PUSH5 0x6970667358 0x22 SLT KECCAK256 0xEA EQ REVERT 0xE4 0xAA 0xDC 0xA9 DUP1 PUSH8 0xC1C2103BC99E0856 0xED 0xB1 0xD2 0x22 MSTORE8 DUP12 DUP12 0xDD PUSH18 0x18F49E237B264736F6C634300081A003300 "
		},
		"gasEstimates": {
			"creation": {
				"codeDepositCost": "2424000",
				"executionCost": "infinite",
				"totalCost": "infinite"
			},
			"external": {
				"approve(address,uint256)": "31094",
				"balanceOf(address)": "2625",
				"cacheBlockhash(uint256)": "24855",
				"cachedBlockHashes(uint256)": "2457",
				"checkIfImWinner(uint256,uint256,uint256,string,uint256)": "infinite",
				"getApproved(uint256)": "4601",
				"getRandomNumbers(uint256,uint256,uint256,string)": "infinite",
				"isApprovedForAll(address,address)": "2936",
				"mint(string,string,string)": "infinite",
				"name()": "infinite",
				"ownerOf(uint256)": "2589",
				"recordRandomNumbers(uint256,uint256,uint256,string)": "infinite",
				"safeTransferFrom(address,address,uint256)": "infinite",
				"safeTransferFrom(address,address,uint256,bytes)": "infinite",
				"setApprovalForAll(address,bool)": "26757",
				"supportsInterface(bytes4)": "333",
				"symbol()": "infinite",
				"tokenURI(uint256)": "infinite",
				"transferFrom(address,address,uint256)": "106494"
			},
			"internal": {
				"createSVGParams(uint256,uint256[] memory)": "infinite"
			}
		},
		"methodIdentifiers": {
			"approve(address,uint256)": "095ea7b3",
			"balanceOf(address)": "70a08231",
			"cacheBlockhash(uint256)": "ac2b6e94",
			"cachedBlockHashes(uint256)": "4125d0ca",
			"checkIfImWinner(uint256,uint256,uint256,string,uint256)": "0fed8ef7",
			"getApproved(uint256)": "081812fc",
			"getRandomNumbers(uint256,uint256,uint256,string)": "78fdd3f2",
			"isApprovedForAll(address,address)": "e985e9c5",
			"mint(string,string,string)": "d645ddf6",
			"name()": "06fdde03",
			"ownerOf(uint256)": "6352211e",
			"recordRandomNumbers(uint256,uint256,uint256,string)": "5ed896c1",
			"safeTransferFrom(address,address,uint256)": "42842e0e",
			"safeTransferFrom(address,address,uint256,bytes)": "b88d4fde",
			"setApprovalForAll(address,bool)": "a22cb465",
			"supportsInterface(bytes4)": "01ffc9a7",
			"symbol()": "95d89b41",
			"tokenURI(uint256)": "c87b56dd",
			"transferFrom(address,address,uint256)": "23b872dd"
		}
	},
	"abi": [
		{
			"inputs": [],
			"stateMutability": "nonpayable",
			"type": "constructor"
		},
		{
			"inputs": [],
			"name": "AlreadyCachedBlockHash",
			"type": "error"
		},
		{
			"inputs": [
				{
					"internalType": "address",
					"name": "sender",
					"type": "address"
				},
				{
					"internalType": "uint256",
					"name": "tokenId",
					"type": "uint256"
				},
				{
					"internalType": "address",
					"name": "owner",
					"type": "address"
				}
			],
			"name": "ERC721IncorrectOwner",
			"type": "error"
		},
		{
			"inputs": [
				{
					"internalType": "address",
					"name": "operator",
					"type": "address"
				},
				{
					"internalType": "uint256",
					"name": "tokenId",
					"type": "uint256"
				}
			],
			"name": "ERC721InsufficientApproval",
			"type": "error"
		},
		{
			"inputs": [
				{
					"internalType": "address",
					"name": "approver",
					"type": "address"
				}
			],
			"name": "ERC721InvalidApprover",
			"type": "error"
		},
		{
			"inputs": [
				{
					"internalType": "address",
					"name": "operator",
					"type": "address"
				}
			],
			"name": "ERC721InvalidOperator",
			"type": "error"
		},
		{
			"inputs": [
				{
					"internalType": "address",
					"name": "owner",
					"type": "address"
				}
			],
			"name": "ERC721InvalidOwner",
			"type": "error"
		},
		{
			"inputs": [
				{
					"internalType": "address",
					"name": "receiver",
					"type": "address"
				}
			],
			"name": "ERC721InvalidReceiver",
			"type": "error"
		},
		{
			"inputs": [
				{
					"internalType": "address",
					"name": "sender",
					"type": "address"
				}
			],
			"name": "ERC721InvalidSender",
			"type": "error"
		},
		{
			"inputs": [
				{
					"internalType": "uint256",
					"name": "tokenId",
					"type": "uint256"
				}
			],
			"name": "ERC721NonexistentToken",
			"type": "error"
		},
		{
			"inputs": [],
			"name": "InvalidBlockNumber",
			"type": "error"
		},
		{
			"inputs": [],
			"name": "InvalidCount",
			"type": "error"
		},
		{
			"anonymous": false,
			"inputs": [
				{
					"indexed": true,
					"internalType": "address",
					"name": "owner",
					"type": "address"
				},
				{
					"indexed": true,
					"internalType": "address",
					"name": "approved",
					"type": "address"
				},
				{
					"indexed": true,
					"internalType": "uint256",
					"name": "tokenId",
					"type": "uint256"
				}
			],
			"name": "Approval",
			"type": "event"
		},
		{
			"anonymous": false,
			"inputs": [
				{
					"indexed": true,
					"internalType": "address",
					"name": "owner",
					"type": "address"
				},
				{
					"indexed": true,
					"internalType": "address",
					"name": "operator",
					"type": "address"
				},
				{
					"indexed": false,
					"internalType": "bool",
					"name": "approved",
					"type": "bool"
				}
			],
			"name": "ApprovalForAll",
			"type": "event"
		},
		{
			"anonymous": false,
			"inputs": [
				{
					"indexed": true,
					"internalType": "uint256",
					"name": "max",
					"type": "uint256"
				},
				{
					"indexed": true,
					"internalType": "uint256",
					"name": "count",
					"type": "uint256"
				},
				{
					"indexed": true,
					"internalType": "uint256",
					"name": "blockNumber",
					"type": "uint256"
				},
				{
					"indexed": false,
					"internalType": "string",
					"name": "salt",
					"type": "string"
				},
				{
					"indexed": false,
					"internalType": "uint256[]",
					"name": "randomNumbers",
					"type": "uint256[]"
				}
			],
			"name": "RandomNumbers",
			"type": "event"
		},
		{
			"anonymous": false,
			"inputs": [
				{
					"indexed": true,
					"internalType": "address",
					"name": "from",
					"type": "address"
				},
				{
					"indexed": true,
					"internalType": "address",
					"name": "to",
					"type": "address"
				},
				{
					"indexed": true,
					"internalType": "uint256",
					"name": "tokenId",
					"type": "uint256"
				}
			],
			"name": "Transfer",
			"type": "event"
		},
		{
			"inputs": [
				{
					"internalType": "address",
					"name": "to",
					"type": "address"
				},
				{
					"internalType": "uint256",
					"name": "tokenId",
					"type": "uint256"
				}
			],
			"name": "approve",
			"outputs": [],
			"stateMutability": "nonpayable",
			"type": "function"
		},
		{
			"inputs": [
				{
					"internalType": "address",
					"name": "owner",
					"type": "address"
				}
			],
			"name": "balanceOf",
			"outputs": [
				{
					"internalType": "uint256",
					"name": "",
					"type": "uint256"
				}
			],
			"stateMutability": "view",
			"type": "function"
		},
		{
			"inputs": [
				{
					"internalType": "uint256",
					"name": "blockNumber",
					"type": "uint256"
				}
			],
			"name": "cacheBlockhash",
			"outputs": [],
			"stateMutability": "nonpayable",
			"type": "function"
		},
		{
			"inputs": [
				{
					"internalType": "uint256",
					"name": "",
					"type": "uint256"
				}
			],
			"name": "cachedBlockHashes",
			"outputs": [
				{
					"internalType": "bytes32",
					"name": "",
					"type": "bytes32"
				}
			],
			"stateMutability": "view",
			"type": "function"
		},
		{
			"inputs": [
				{
					"internalType": "uint256",
					"name": "max",
					"type": "uint256"
				},
				{
					"internalType": "uint256",
					"name": "count",
					"type": "uint256"
				},
				{
					"internalType": "uint256",
					"name": "blockNumber",
					"type": "uint256"
				},
				{
					"internalType": "string",
					"name": "salt",
					"type": "string"
				},
				{
					"internalType": "uint256",
					"name": "myNumber",
					"type": "uint256"
				}
			],
			"name": "checkIfImWinner",
			"outputs": [
				{
					"internalType": "bool",
					"name": "",
					"type": "bool"
				}
			],
			"stateMutability": "view",
			"type": "function"
		},
		{
			"inputs": [
				{
					"internalType": "uint256",
					"name": "tokenId",
					"type": "uint256"
				}
			],
			"name": "getApproved",
			"outputs": [
				{
					"internalType": "address",
					"name": "",
					"type": "address"
				}
			],
			"stateMutability": "view",
			"type": "function"
		},
		{
			"inputs": [
				{
					"internalType": "uint256",
					"name": "max",
					"type": "uint256"
				},
				{
					"internalType": "uint256",
					"name": "count",
					"type": "uint256"
				},
				{
					"internalType": "uint256",
					"name": "blockNumber",
					"type": "uint256"
				},
				{
					"internalType": "string",
					"name": "salt",
					"type": "string"
				}
			],
			"name": "getRandomNumbers",
			"outputs": [
				{
					"internalType": "uint256[]",
					"name": "",
					"type": "uint256[]"
				}
			],
			"stateMutability": "view",
			"type": "function"
		},
		{
			"inputs": [
				{
					"internalType": "address",
					"name": "owner",
					"type": "address"
				},
				{
					"internalType": "address",
					"name": "operator",
					"type": "address"
				}
			],
			"name": "isApprovedForAll",
			"outputs": [
				{
					"internalType": "bool",
					"name": "",
					"type": "bool"
				}
			],
			"stateMutability": "view",
			"type": "function"
		},
		{
			"inputs": [
				{
					"internalType": "string",
					"name": "name",
					"type": "string"
				},
				{
					"internalType": "string",
					"name": "description",
					"type": "string"
				},
				{
					"internalType": "string",
					"name": "salt",
					"type": "string"
				}
			],
			"name": "mint",
			"outputs": [
				{
					"internalType": "uint256",
					"name": "",
					"type": "uint256"
				}
			],
			"stateMutability": "nonpayable",
			"type": "function"
		},
		{
			"inputs": [],
			"name": "name",
			"outputs": [
				{
					"internalType": "string",
					"name": "",
					"type": "string"
				}
			],
			"stateMutability": "view",
			"type": "function"
		},
		{
			"inputs": [
				{
					"internalType": "uint256",
					"name": "tokenId",
					"type": "uint256"
				}
			],
			"name": "ownerOf",
			"outputs": [
				{
					"internalType": "address",
					"name": "",
					"type": "address"
				}
			],
			"stateMutability": "view",
			"type": "function"
		},
		{
			"inputs": [
				{
					"internalType": "uint256",
					"name": "max",
					"type": "uint256"
				},
				{
					"internalType": "uint256",
					"name": "count",
					"type": "uint256"
				},
				{
					"internalType": "uint256",
					"name": "blockNumber",
					"type": "uint256"
				},
				{
					"internalType": "string",
					"name": "salt",
					"type": "string"
				}
			],
			"name": "recordRandomNumbers",
			"outputs": [],
			"stateMutability": "nonpayable",
			"type": "function"
		},
		{
			"inputs": [
				{
					"internalType": "address",
					"name": "from",
					"type": "address"
				},
				{
					"internalType": "address",
					"name": "to",
					"type": "address"
				},
				{
					"internalType": "uint256",
					"name": "tokenId",
					"type": "uint256"
				}
			],
			"name": "safeTransferFrom",
			"outputs": [],
			"stateMutability": "nonpayable",
			"type": "function"
		},
		{
			"inputs": [
				{
					"internalType": "address",
					"name": "from",
					"type": "address"
				},
				{
					"internalType": "address",
					"name": "to",
					"type": "address"
				},
				{
					"internalType": "uint256",
					"name": "tokenId",
					"type": "uint256"
				},
				{
					"internalType": "bytes",
					"name": "data",
					"type": "bytes"
				}
			],
			"name": "safeTransferFrom",
			"outputs": [],
			"stateMutability": "nonpayable",
			"type": "function"
		},
		{
			"inputs": [
				{
					"internalType": "address",
					"name": "operator",
					"type": "address"
				},
				{
					"internalType": "bool",
					"name": "approved",
					"type": "bool"
				}
			],
			"name": "setApprovalForAll",
			"outputs": [],
			"stateMutability": "nonpayable",
			"type": "function"
		},
		{
			"inputs": [
				{
					"internalType": "bytes4",
					"name": "interfaceId",
					"type": "bytes4"
				}
			],
			"name": "supportsInterface",
			"outputs": [
				{
					"internalType": "bool",
					"name": "",
					"type": "bool"
				}
			],
			"stateMutability": "view",
			"type": "function"
		},
		{
			"inputs": [],
			"name": "symbol",
			"outputs": [
				{
					"internalType": "string",
					"name": "",
					"type": "string"
				}
			],
			"stateMutability": "view",
			"type": "function"
		},
		{
			"inputs": [
				{
					"internalType": "uint256",
					"name": "tokenId",
					"type": "uint256"
				}
			],
			"name": "tokenURI",
			"outputs": [
				{
					"internalType": "string",
					"name": "",
					"type": "string"
				}
			],
			"stateMutability": "view",
			"type": "function"
		},
		{
			"inputs": [
				{
					"internalType": "address",
					"name": "from",
					"type": "address"
				},
				{
					"internalType": "address",
					"name": "to",
					"type": "address"
				},
				{
					"internalType": "uint256",
					"name": "tokenId",
					"type": "uint256"
				}
			],
			"name": "transferFrom",
			"outputs": [],
			"stateMutability": "nonpayable",
			"type": "function"
		},
		{
			"stateMutability": "payable",
			"type": "receive"
		}
	]
}